:100000000C94FD000C9425010C9425010C94250101
:100010000C9425010C9425010C9425010C94D80412
:100020000C9425010C9425010C9425010C942501B8
:100030000C9425010C9425010C9425010C942501A8
:100040000C94360B0C9425010C94A60E0C94D80E2F
:100050000C9425010C9425010C9425010C94250188
:100060000C9425010C9425010000000800020100F9
:100070000003040700000000000000000102040863
:100080001020408001020408102001020408102002
:10009000040404040404040402020202020203032E
:1000A00003030303000000002300260029000000D2
:1000B0000000250028002B0000000000240027007D
:1000C0002A004E414E494E495459494E46CDCCCC5A
:1000D0003D0AD7233C17B7D13877CC2B329595E61C
:1000E000241FB14F0A000020410000C84200401CFC
:1000F0004620BCBE4CCA1B0E5AAEC59D7400407A49
:1001000010F35A00A0724E18090010A5D4E80000A0
:10011000E87648170000E40B54020000CA9A3B003E
:100120000000E1F505000080969800000040420FB5
:10013000000000A08601000000102700000000E879
:1001400003000000006400000000000A000000003E
:10015000000100000000002C76D888DC674F0823DF
:10016000DFC1DFAE59E1B1B796E5E3E453C63AE645
:1001700051997696E8E6C28426EB898C9B62ED4025
:100180007C6FFCEFBC9C9F40F2BAA56FA5F4900574
:100190005A2AF75C936B6CF9676DC11BFCE0E40DA8
:1001A00047FEF520E6B500D0ED902E03009435779C
:1001B000050080841E080000204E0A000000C80CC4
:1001C000333333330F986E12831141EF8D2114892D
:1001D0003BE65516CFFEE6DB18D1844B381BF77C87
:1001E0001D901DA4BBE424203284725E228100C9CC
:1001F000F124ECA1E53D2700080F11241FBECFEF2D
:10020000D8E0DEBFCDBF11E0A0E0B1E0ECEEF6E358
:1002100002C005900D92A63CB107D9F723E0A6ECE9
:10022000B1E001C01D92AF39B207E1F711E0CAEFAA
:10023000D1E004C02297FE010E94F014C83FD1070C
:10024000C9F70E944C0F0C94741B0C94000040EDF5
:1002500057E060E070E08CEB92E00E94800920E8BB
:1002600035E240E050E06CEF72E08CEB92E00E94EF
:1002700093098CEB92E00E947D0967E071E0809128
:10028000ED029091EE020E94A70F6AE070E080E01C
:1002900090E00E94AF0B41E060E08CEB92E00E94A6
:1002A000FE0926E040E855E260E070E08CEF92E065
:1002B0000C94440EE6ECF1E0119281E0EA3DF8077F
:1002C000D9F7089561E08091DF010E94C90C809107
:1002D000C601813311F461E003C0803329F460E08A
:1002E0008091DF010C94020D08958F929F92AF923E
:1002F000BF92CF92DF92EF92FF920F931F93CF9313
:10030000DF93CDB7DEB7AC970FB6F894DEBF0FBE64
:10031000CDBF6FE571E0CE0187960E940B11609111
:10032000C801CE0101960E9459116091C701CE010A
:100330004B960E9459116091C601CE0181960E9490
:1003400059115E0185E1A80EB11CBE016F5D7F4FA2
:10035000C5010E943811BE01655E7F4FC5010E9434
:10036000CD11BE016F5F7F4F0E94CD11BC01CE0148
:1003700087960E942111C5010E949D10CE01819691
:100380000E949D10CE014B960E949D10CE010196B9
:100390000E949D108091C901883279F48091CC012E
:1003A000893259F48091CA0189838091CB018A8373
:1003B000CE0101960E9419174C01FE01319611924F
:1003C000EA15FB05E1F7EDECF1E0DE011196819114
:1003D0008D9381E0E13EF807D1F740E150E060E025
:1003E00070E0CE0101960E94190A6B017C01BE01EA
:1003F000695D7F4FC5010E943811B5018CEF92E015
:100400000E94B40FC5010E949D104AE050E0B40163
:100410008CEF92E00E945F1020E130E0B701A6016E
:100420008CEF92E00E94771069E171E0C5010E94B3
:100430000B11BE01695D7F4FC5010E941012182F7C
:10044000C5010E949D10111129C06DE171E0C50127
:100450000E940B11BE01695D7F4FC5010E94101201
:10046000182FC5010E949D10112339F09401B70186
:10047000A601C5010E944807A6C061E271E0C5015E
:100480000E940B11BE01695D7F4FC5010E941012D1
:10049000182FC5010E949D10112339F09401B70156
:1004A000A601C5010E9493088EC065E271E0C501F6
:1004B0000E940B11BE01695D7F4FC5010E941012A1
:1004C000182FC5010E949D10112339F09401B70126
:1004D000A601C5010E94A90776C069E271E0C501C5
:1004E0000E940B11BE01695D7F4FC5010E94101271
:1004F000182FC5010E949D10112339F09401B701F6
:10050000A601C5010E940D085EC06DE271E0C50143
:100510000E940B11BE01695D7F4FC5010E94101240
:10052000182FC5010E949D10112339F09401B701C5
:10053000A601C5010E94EA0646C061E371E0C5015B
:100540000E940B11BE01695D7F4FC5010E94101210
:10055000182FC5010E949D10112341F000E0940165
:10056000B701A601C5010E9485062DC065E371E0B3
:10057000C5010E940B11BE01695D7F4FC5010E943C
:100580001012182FC5010E949D10112329F0B601E9
:10059000C5010E94100617C069E371E0C5010E9401
:1005A0000B11BE01695D7F4FC5010E941012182F0B
:1005B000C5010E949D10112331F09401B701A601DD
:1005C000C5010E94E808CE0187960E949D10AC9656
:1005D0000FB6F894DEBF0FBECDBFDF91CF911F9154
:1005E0000F91FF90EF90DF90CF90BF90AF909F90D2
:1005F0008F9008957F928F929F92AF92BF92CF92E9
:10060000DF92EF92FF920F931F93CF93DF9300D06F
:1006100000D000D0CDB7DEB77090DF0186EC91E05E
:100620000E9415174B015C0108EE13E0C12CD12C80
:100630007601872D0E94240C8E5F9140BC01882793
:1006400077FD8095982F0E9428139B01AC010E9492
:10065000D8139B01AC01C701B6010E9425126B01A2
:100660007C010150110929F720E030E04AE754E409
:100670000E948D120E943F142BE038E240EA5BE3B7
:100680000E94D813A50194010E948D126B017C0178
:100690002CE53FE842EC5DE30E94891218161CF03D
:1006A000C12CD12C76016AE070E080E090E00E94DD
:1006B000AF0B22E0B701A601CE0101960E94711195
:1006C000BE016F5F7F4F8CEF92E00E94B40FCE01AE
:1006D00001960E949D1026960FB6F894DEBF0FBEBD
:1006E000CDBFDF91CF911F910F91FF90EF90DF90E1
:1006F000CF90BF90AF909F908F907F90089561E0D2
:1007000085E00E94C90C61E084E00E94C90C61E0B0
:1007100084E00E94020D86EC91E00E941917BC0152
:10072000882777FD8095982F0E94281323E333E3D1
:1007300043E250E40E94D8130E94F51285E00C9425
:10074000410C61E087E00E94C90C61E086E00E94F4
:10075000C90C8091C601813339F461E086E00E94C2
:10076000020D60E070E008C0823349F461E086E089
:100770000E94020D6FEF70E087E00E94410C68EB71
:100780007BE080E090E00E94AF0B60E086E00C949C
:10079000020D8091DF019091E001049711F40E9415
:1007A0007F038091DF019091E001069711F40C9492
:1007B000A10308950F931F93CF93DF9300D0CDB77C
:1007C000DEB70E945A0100E010E08CEF92E00E9438
:1007D000610D181619065CF58CEF92E00E947A0DF7
:1007E0008A30F1F00115110519F48093E10116C06A
:1007F0000130110511F4898311C00230110551F443
:100800008A83CE0101960E9419179093E00180938C
:10081000DF0104C0F801ED53FE4F80830F5F1F4FCF
:100820006AE070E080E090E00E94AF0BCECF0F90C6
:100830000F90DF91CF911F910F910895CF92DF928A
:10084000EF92FF920F931F930E94800B672B682BF0
:10085000692B41F40E94800B62307105810591057E
:1008600008F478C08CEB92E00E9453096093E20197
:100870007093E3018093E4019093E5010091E60118
:100880001091E7012091E8013091E90160177107AB
:100890008207930740F46093E6017093E701809329
:1008A000E8019093E9010091E6011091E7012091A0
:1008B000E8013091E9016B017C01C01AD10AE20A1A
:1008C000F30A970186010A3F11052105310508F455
:1008D00041C06093E6017093E7018093E801909333
:1008E000E9018CEB92E00E947D096DE371E080915B
:1008F000ED029091EE020E94A70F65E471E08091F5
:10090000ED029091EE020E94A70F0E94800BAB01B6
:10091000BC012AE030E08091ED029091EE020E944D
:10092000891067E471E08091ED029091EE020E94DF
:10093000A70F65E070E080E090E00E94AF0B6AE0F6
:1009400070E080E090E00E94AF0B61E08CEB92E001
:100950000E94C0098CEF92E00E94610D18161906E2
:1009600004F50E94DA038091E101813311F40E94C1
:1009700062018091E101833311F40E94750180913D
:10098000E101843311F40E94C9038091E1018633AF
:1009900041F41F910F91FF90EF90DF90CF900C9456
:1009A000FA021F910F91FF90EF90DF90CF90089582
:1009B0001F920F920FB60F9211242F933F934F93D4
:1009C0005F936F937F938F939F93AF93BF93EF93B7
:1009D000FF938091EB010E94380D2091EF0130913F
:1009E000F0012F5F3F4F3093F0012093EF01909182
:1009F000EE01953618F096E09093EA019091EA01A5
:100A00009430C9F128F4923069F09330D1F05EC08F
:100A1000953009F451C0963009F058C091E0909398
:100A2000BB0251C0811152C02091EF013091F00101
:100A30002436310508F442C01092BB021092EE0138
:100A40001CC0813009F042C0E091EE0191E09E0FA0
:100A50009093EE01F0E02091EF013091F001EE0F64
:100A6000FF1FE651FE4F308727831092F00110924E
:100A7000EF0194E029C0811117C0E091EE0191E0EF
:100A80009E0F9093EE01F0E02091EF013091F00184
:100A9000EE0FFF1FE651FE4F308727831092F001C3
:100AA0001092EF0193E010C02091EF013091F0011E
:100AB0002536310558F007C0811108C01092F001A9
:100AC0001092EF0103C095E09093EA019091ED013F
:100AD0009923B9F081110AC08091EC01882321F09B
:100AE0008091EC0161E009C02D9A0BC08091EC016E
:100AF000882331F08091EC0160E00E94020D01C07A
:100B00002D98FF91EF91BF91AF919F918F917F9120
:100B10006F915F914F913F912F910F900FBE0F906A
:100B20001F901895CF93DF93EB011092700061E056
:100B300083E00E94C90C60E083E00E94020D9E01E8
:100B4000442737FD4095542F60E47FE180E090E03A
:100B50000E94C41481E08093B00089E08093B100CA
:100B60002093B3008BEA289F212D112426952093F2
:100B7000B400DF91CF9108958F929F92AF92BF9270
:100B8000CF92DF92EF92FF926A017B0145305105CF
:100B90006105710500F10E948C0B4B015C0184E042
:100BA000C81AD108E108F108C80CD91CEA1CFB1CC2
:100BB000C814D904EA04FB0438F40E948C0B86168E
:100BC0009706A806B906C8F30E948C0B6C157D0524
:100BD0008E059F05C8F3FF90EF90DF90CF90BF90F8
:100BE000AF909F908F9008952091B0002062209345
:100BF000B0006115710529F0AB0160E070E00C9464
:100C0000BC0508952091B0002F7D2093B0006115A0
:100C1000710529F0AB0160E070E00C94BC0508950B
:100C2000AF92BF92CF92DF92EF92FF920F931F93FA
:100C3000CF93DF93EC015B0166E270E00E949205C6
:100C400060E672E2CE010E94F40564E971E1CE0132
:100C50000E9402060AE110E0C12CD12CE12C32E006
:100C6000F32E64EF71E0CE010E94F405D701C601B6
:100C7000807C9E7EA772B270892B8A2B8B2B19F0F9
:100C800068E572E002C064EA76E0CE010E940206E6
:100C9000F694E794D794C7940150110911F7AA0C60
:100CA000BB1C0FE010E064EF71E0CE010E94F40580
:100CB000B7FE03C068E572E002C064EA76E0CE01E8
:100CC0000E940206AA0CBB1C0150110961F764EFD7
:100CD00071E0CE010E94F40564EA76E0CE010E9444
:100CE000020664EF71E0CE010E94F40560E070E05E
:100CF000CE01DF91CF911F910F91FF90EF90DF9088
:100D0000CF90BF90AF900C9402068F929F92AF92BB
:100D1000BF92CF92DF92EF92FF920F93CF93DF9328
:100D2000EC014A015B01790166E270E00E949205E4
:100D300001110AC060E47FE1CE010E94F40560EA7F
:100D40007FE0CE010E940206C7010197C12CD12C81
:100D50007601C39404C0CC0CDD1CEE1CFF1C8A95EC
:100D6000D2F7C114D104E104F104F9F0D701C601AE
:100D700088219921AA21BB2168E572E0892B8A2B61
:100D80008B2B31F0CE010E94F40560E476E005C0C3
:100D9000CE010E94F40566E272E0CE010E940206D6
:100DA000F694E794D794C794DCCF68E572E0CE015F
:100DB0000E94F40560E070E0CE01DF91CF910F91C9
:100DC000FF90EF90DF90CF90BF90AF909F908F906B
:100DD0000C9402068F929F92AF92BF92CF92DF92B5
:100DE000EF92FF92CF93DF93EC014A015B0179010F
:100DF00066E270E00E94920560E47FE1CE010E940D
:100E0000F40560EA7FE0CE010E94020668E572E028
:100E1000CE010E94F405C7010197C12CD12C7601A7
:100E2000C39404C0CC0CDD1CEE1CFF1C8A95D2F7C9
:100E3000C114D104E104F104E1F0D701C601882115
:100E40009921AA21BB21892B8A2B8B2B19F060E4D5
:100E500076E002C066E272E0CE010E94020668E51A
:100E600072E0CE010E94F405F694E794D794C794FB
:100E7000DFCF60E070E0CE01DF91CF91FF90EF9087
:100E8000DF90CF90BF90AF909F908F900C94020610
:100E90008F929F92AF92BF92CF92DF92EF92FF928A
:100EA000CF93DF93EC014A015B01790166E270E0C8
:100EB0000E94920568E273E2CE010E94F40564E9A3
:100EC00071E1CE010E940206C7010197C12CD12C0D
:100ED0007601C39404C0CC0CDD1CEE1CFF1C8A956B
:100EE000D2F7C114D104E104F104F9F0D701C6012D
:100EF00088219921AA21BB2160E372E0892B8A2BEA
:100F00008B2B31F0CE010E94F4056AE976E005C032
:100F1000CE010E94F40560E372E0CE010E94020659
:100F2000F694E794D794C794DCCF60E372E0CE01E7
:100F30000E94F40560E070E0CE01DF91CF91FF9058
:100F4000EF90DF90CF90BF90AF909F908F900C94D8
:100F500002068F929F92AF92BF92CF92DF92EF9252
:100F6000FF92CF93DF93EC014A015B01790164E2C8
:100F700070E00E94920569E773E0CE010E94F405DB
:100F800069E773E0CE010E94020669E773E0CE01D3
:100F90000E94F405C7010197C12CD12C7601C3949E
:100FA00004C0CC0CDD1CEE1CFF1C8A95D2F7C114CA
:100FB000D104E104F10411F1D701C601882199217E
:100FC000AA21BB2169E773E0892B8A2B8B2B49F07F
:100FD000CE010E94020669E773E0CE010E94F4058B
:100FE00008C0CE010E94F40569E773E0CE010E94BB
:100FF0000206F694E794D794C794D9CF60E070E0E6
:10100000CE01DF91CF91FF90EF90DF90CF90BF9016
:10101000AF909F908F900C9402064F925F926F92C8
:101020007F928F929F92AF92BF92CF92DF92EF9278
:10103000FF920F931F93CF93DF93EC012A013B01A3
:10104000890164E270E00E9492056AE67AE0CE01CE
:101050000E94F40569E773E0CE010E9402066CEB82
:1010600071E0CE010E94F4056CEB71E0CE010E94AC
:10107000020601501109C12CD12C7601C39404C081
:10108000CC0CDD1CEE1CFF1C0A95D2F7812C912C98
:1010900054018394C114D104E104F10479F184E092
:1010A00088169104A104B10419F408E713E002C002
:1010B0000CEB11E0D701C60184219521A621B721AF
:1010C000B801892B8A2B8B2B41F0CE010E94F405AD
:1010D000B801CE010E94020607C0CE010E9402069E
:1010E000B801CE010E94F4058FEF881A980AA80A69
:1010F000B80AF694E794D794C794CCCF60E070E038
:10110000CE01DF91CF911F910F91FF90EF90DF9073
:10111000CF90BF90AF909F908F907F906F905F9097
:101120004F900C9402068F929F92AF92BF92CF92F3
:10113000DF92EF92FF92CF93DF93EC014A015B01C4
:10114000790168E270E00E94920560E679E0CE01E4
:101150000E94F40568E572E0CE010E940206C70114
:101160000197C12CD12C7601C39404C0CC0CDD1C9A
:10117000EE1CFF1C8A95D2F7C114D104E104F104DE
:10118000E1F0D701C60188219921AA21BB21892B31
:101190008A2B8B2B19F060EB74E002C068E572E0DB
:1011A000CE010E94F40568E572E0CE010E940206BD
:1011B000F694E794D794C794DFCFDF91CF91FF9057
:1011C000EF90DF90CF90BF90AF909F908F90089559
:1011D0008F929F92AF92BF92CF92DF92EF92FF9247
:1011E000CF93DF93EC014A015B01790166E270E085
:1011F0000E9492056EEE72E0CE010E94F4056EEE42
:1012000072E0CE010E94020662E27BE0CE010E9403
:10121000F40562E27BE0CE010E940206C70101975D
:10122000C12CD12C7601C39404C0CC0CDD1CEE1C67
:10123000FF1C8A95D2F7C114D104E104F104F9F03E
:10124000D701C60188219921AA21BB216EEE72E047
:10125000892B8A2B8B2B31F0CE010E94F40566E698
:1012600078E005C0CE010E94F4056EEE72E0CE017A
:101270000E940206F694E794D794C794DCCF6EEEF2
:1012800072E0CE010E94F4056EEE72E0CE01DF91B5
:10129000CF91FF90EF90DF90CF90BF90AF909F9055
:1012A0008F900C9402060C94800B0F931F93CF9396
:1012B000DF93EC01662359F00E94800B69837A83E7
:1012C0008B839C83DF91CF911F910F9108950E9492
:1012D000800B09811A812B813C81601B710B820B71
:1012E000930B643671058105910530F763E070E07A
:1012F00080E090E00E94AF0BEACF60E00C945509CB
:10130000FC0113AA14AA15AA16AA1182128213822A
:101310001482411551056105710521F0CB01BA0117
:101320000C94AF0B0895FB01BA01A901DC01D29620
:10133000FC93EE93D19726E0CF010C94440E1F93BB
:10134000CF93DF93EC01162F60E571E089A99AA98C
:101350000E94A70F4AE050E0612F89A99AA90E9434
:10136000961067E571E089A99AA90E94A70F62E328
:1013700070E080E090E0DF91CF911F910C94AF0B73
:101380001F93CF93DF93EC01162F8D81882389F172
:1013900089A99AA9DC01ED91FC910480F581E02DE9
:1013A0000995892BA9F307C02637310519F128358E
:1013B000310509F41D8289A99AA9DC01ED91FC91FE
:1013C0000480F581E02D09951816190694F489A971
:1013D0009AA9DC01ED91FC910680F781E02D099539
:1013E0009C01332723363105F9F6612FCE010E9487
:1013F0009F0983E6DF91CF911F9108950F931F936B
:10140000CF93DF931F92CDB7DEB78C01662349F0EF
:1014100081E0F801858360E0C80149830E94C0092A
:101420004981F80145830F90DF91CF911F910F9172
:1014300008952F923F924F925F926F927F928F9278
:101440009F92AF92BF92CF92DF92EF92FF920F9353
:101450001F93CF93DF93CDB7DEB72F970FB6F894D6
:10146000DEBF0FBECDBF882E9D831B015F874E87D9
:10147000E82EF92E67016FEFC61AD60A8601D7014A
:101480009C90892D90E00E944017892B11F07601E5
:10149000F1CFBDE29B1209C087010E5F1F4FF7011C
:1014A000918044244394512C0BC0FBE29F1206C050
:1014B00087010E5F1F4FD70111969C90412C512C34
:1014C0008E859F858F7E892BC9F4B0E39B120EC059
:1014D000F80180818F7D883509F0A3C091800E5F6F
:1014E0001F4F60E170E07F876E8708C08E859F8503
:1014F000892B21F4AAE0B0E0BF87AE876E857F8597
:10150000882777FD8095982F69837A838B839C83C6
:101510006FEF7FEFCB0129813A814B815C810E9483
:10152000A21469017A0179876887380100E010E028
:1015300020E030E0A9017F826E82A92CB12C97FCBB
:1015400052C0C501C0970A9718F4E0EDE90D1BC021
:10155000C5012A873B874C875D870E9439172A85FA
:101560003B854C855D85892BF1F1C5010E943717BC
:101570002A853B854C855D85892B11F087E301C069
:1015800087E5E92DE81B8E2F90E0AE85BF858A1791
:101590009B074CF517FD1EC0C216D306E406F506E0
:1015A000C8F02C153D054E055F0529F46885798541
:1015B000681779077CF069817A818B819C810E9410
:1015C00092149B01AC012E0F311D411D511D01E0F4
:1015D00010E002C00FEF1FEF7FEF671A770AAE81AE
:1015E000BF819C90A8CF17FD0AC0452859F050959F
:1015F0004095309521953F4F4F4F5F4F03C02FEFE0
:101600003FEFA90121143104B1F0012B21F0830136
:101610000150110902C0082D1D81F10111830083C1
:101620000AC06E857F85672B09F068CF88E090E05F
:101630009F878E8763CFCA01B9012F960FB6F894A2
:10164000DEBF0FBECDBFDF91CF911F910F91FF90F5
:10165000EF90DF90CF90BF90AF909F908F907F9052
:101660006F905F904F903F902F9008951F920F9230
:101670000FB60F9211242F933F938F939F93AF93A5
:10168000BF938091F4029091F502A091F602B0917F
:10169000F7023091F30223E0230F2D3720F4019657
:1016A000A11DB11D05C026E8230F0296A11DB11D85
:1016B0002093F3028093F4029093F502A093F60234
:1016C000B093F7028091F8029091F902A091FA028A
:1016D000B091FB020196A11DB11D8093F802909379
:1016E000F902A093FA02B093FB02BF91AF919F91D0
:1016F0008F913F912F910F900FBE0F901F901895D3
:101700002FB7F8946091F4027091F5028091F6027F
:101710009091F7022FBF08953FB7F8948091F80297
:101720009091F902A091FA02B091FB0226B5A89B14
:1017300005C02F3F19F00196A11DB11D3FBF6627BF
:10174000782F892F9A2F620F711D811D911D42E004
:10175000660F771F881F991F4A95D1F708958F92BA
:101760009F92AF92BF92CF92DF92EF92FF926B0166
:101770007C010E948C0B4B015C01C114D104E1047B
:10178000F104F1F00E9423120E948C0B6819790970
:101790008A099B09683E73408105910570F321E039
:1017A000C21AD108E108F10888EE880E83E0981E7D
:1017B000A11CB11CC114D104E104F10429F7DDCF4F
:1017C000FF90EF90DF90CF90BF90AF909F908F9061
:1017D0000895789484B5826084BD84B5816084BDA9
:1017E00085B5826085BD85B5816085BDEEE6F0E09A
:1017F000808181608083E1E8F0E0108280818260F6
:101800008083808181608083E0E8F0E08081816076
:101810008083E1EBF0E0808184608083E0EBF0E0A6
:10182000808181608083EAE7F0E08081846080834A
:1018300080818260808380818160808380818068F4
:1018400080831092C10008958E3008F08E5087700A
:101850002091060190E4299F90011124822B80930E
:101860007C0080917A00806480937A0080917A0075
:1018700086FDFCCF809178002091790090E0922B3A
:1018800008951F93CF93DF93182FEB0161E00E941F
:10189000C90C209711F460E004C0CF3FD10539F4A2
:1018A00061E0812FDF91CF911F910C94020DE12F08
:1018B000F0E0E859FF4FE491E330F9F048F4E1300B
:1018C000B9F0E230A1F584B5806284BDC8BD34C0F2
:1018D000E730E9F0E83019F1E43049F58091800013
:1018E000806280938000D0938B00C0938A0024C0D4
:1018F00084B5806884BDC7BD1FC0809180008068AA
:1019000080938000D0938900C093880015C0809197
:10191000B00080688093B000C093B3000DC0809188
:10192000B00080628093B000C093B40005C0C0389E
:10193000D1050CF0B5CFAFCFDF91CF911F910895B6
:10194000833081F028F4813099F08230A1F008953D
:101950008730A9F08830B9F08430D1F480918000CC
:101960008F7D03C0809180008F77809380000895E1
:1019700084B58F7702C084B58F7D84BD0895809132
:10198000B0008F7703C08091B0008F7D8093B0004E
:101990000895CF93DF9390E0FC01E458FF4F24912A
:1019A000FC01E057FF4F8491882349F190E0880FB4
:1019B000991FFC01E854FF4FA591B49182559F4FA8
:1019C000FC01C591D4919FB7611108C0F8948C9126
:1019D000209582238C93888182230AC0623051F43F
:1019E000F8948C91322F309583238C938881822BAD
:1019F000888304C0F8948C91822B8C939FBFDF91D5
:101A0000CF9108950F931F93CF93DF931F92CDB77C
:101A1000DEB7282F30E0F901E859FF4F8491F90132
:101A2000E458FF4F1491F901E057FF4F0491002350
:101A3000C9F0882321F069830E94A00C6981E02FFE
:101A4000F0E0EE0FFF1FE255FF4FA591B4919FB755
:101A5000F8948C91611103C01095812301C0812BF2
:101A60008C939FBF0F90DF91CF911F910F9108959D
:101A7000CF93DF93282F30E0F901E859FF4F84918D
:101A8000F901E458FF4FD491F901E057FF4FC49199
:101A9000CC2391F081110E94A00CEC2FF0E0EE0F0E
:101AA000FF1FEC55FF4FA591B4912C912D2381E0A0
:101AB00090E021F480E002C080E090E0DF91CF91DF
:101AC0000895FC01818D228D90E0805C9F4F821BE8
:101AD00091098F7399270895FC01918D828D981734
:101AE00031F0828DE80FF11D858D90E008958FEF24
:101AF0009FEF0895FC01918D828D981761F0828D82
:101B0000DF01A80FB11D5D968C91928D9F5F9F7331
:101B1000928F90E008958FEF9FEF08958EEF9EE0F3
:101B2000892B49F080E090E0892B29F00E94FE0E7D
:101B300081110C9400000895FC01848DDF01A80F31
:101B4000B11DA35ABF4F2C91848D90E001968F73E5
:101B50009927848FA689B7892C93A089B1898C9104
:101B600080648C93938D848D981306C00288F389CA
:101B7000E02D80818F7D80830895CF93DF93EC01EA
:101B8000888D8823C9F0EA89FB89808185FD05C09D
:101B9000A889B9898C9186FD0FC00FB607FCF5CFD7
:101BA000808185FFF2CFA889B9898C9185FFEDCF1F
:101BB000CE010E949C0DE7CFDF91CF910895CF9287
:101BC000DF92FF920F931F93CF93DF931F92CDB7B6
:101BD000DEB76C0181E0D60158968C9358975B96DE
:101BE0009C915B975C968C915C97981307C050967C
:101BF000ED91FC915197808185FD2EC0F601038DFA
:101C000010E00F5F1F4F0F731127F02EF601848D28
:101C1000F81211C00FB607FCF9CFD6015096ED911E
:101C2000FC915197808185FFF1CFC60169830E94A5
:101C30009C0D6981EBCF838DE80FF11DE35AFF4FB7
:101C40006083D6015B960C935B975296ED91FC9165
:101C50005397808180620CC0D6015696ED91FC911D
:101C6000579760835096ED91FC91519780818064E5
:101C7000808381E090E00F90DF91CF911F910F91D1
:101C8000FF90DF90CF900895BF92CF92DF92EF92B6
:101C9000FF92CF93DF93EC016A017B01B22EE889BA
:101CA000F98982E08083411581EE5807610571054D
:101CB000A1F060E079E08DE390E0A70196010E9439
:101CC000A21421503109410951095695479537957C
:101CD0002795211580E1380798F0E889F989108265
:101CE00060E874E88EE190E0A70196010E94A214DA
:101CF0002150310941095109569547953795279546
:101D0000EC85FD853083EE85FF852083188EEC8978
:101D1000FD89B082EA89FB89808180618083EA89BC
:101D2000FB89808188608083EA89FB898081806863
:101D30008083EA89FB8980818F7D8083DF91CF91C9
:101D4000FF90EF90DF90CF90BF9008951F920F9279
:101D50000FB60F9211242F938F939F93EF93FF93BE
:101D6000E0910C03F0910D038081E0911203F0915A
:101D7000130382FD12C09081809115038F5F8F73D2
:101D800020911603821751F0E0911503F0E0E45022
:101D9000FD4F958F8093150301C08081FF91EF91D6
:101DA0009F918F912F910F900FBE0F901F901895BC
:101DB0001F920F920FB60F9211242F933F934F93C0
:101DC0005F936F937F938F939F93AF93BF93EF93A3
:101DD000FF938CEF92E00E949C0DFF91EF91BF91D9
:101DE000AF919F918F917F916F915F914F913F91B3
:101DF0002F910F900FBE0F901F9018958CEF92E0CF
:101E00000E94610D21E0892B09F420E0822F0895C2
:101E10001092FF021092FE0288EE93E0A0E0B0E084
:101E20008093000390930103A0930203B0930303F4
:101E30008CEA91E09093FD028093FC0285EC90E0A7
:101E4000909309038093080384EC90E090930B0334
:101E500080930A0380EC90E090930D0380930C0331
:101E600081EC90E090930F0380930E0382EC90E05E
:101E7000909311038093100386EC90E090931303EA
:101E800080931203109215031092160310921703F9
:101E900010921803089508950E94E90B0E944B0FB9
:101EA0000E942701CEE8DDE00E941E042097E1F3A6
:101EB0000E948E0DF9CFCF92DF92EF92FF920F9397
:101EC0001F93CF93DF937C016A01EB0100E010E0E8
:101ED0000C151D0571F06991D701ED91FC910190F0
:101EE000F081E02DC7010995892B19F00F5F1F4F75
:101EF000EFCFC801DF91CF911F910F91FF90EF902D
:101F0000DF90CF9008956115710581F0DB010D9090
:101F10000020E9F7AD0141505109461B570BDC0188
:101F2000ED91FC910280F381E02D099480E090E036
:101F30000895DC01ED91FC91DB0114964D915C91CB
:101F400015976D917C910280F381E02D09940C949A
:101F5000830FDC01ED91FC910190F081E02D09945B
:101F60006DE571E00C94830F0F931F93CF93DF9374
:101F7000EC010E94990F8C01CE010E94B00F800FDE
:101F8000911FDF91CF911F910F9108958F929F9292
:101F9000AF92BF92DF92EF92FF920F931F93CF9376
:101FA000DF93CDB7DEB7A1970FB6F894DEBF0FBEB3
:101FB000CDBF7C01F42FD52ECB0119A2223008F41D
:101FC0002AE08E010F5D1F4F822E912CA12CB12C87
:101FD0006F2F7D2DA50194010E94A214F22FD32E04
:101FE000CA01015011096A3014F4E0E301C0E7E3CB
:101FF000E60FD801EC93232B242B252B49F7B801AE
:10200000C7010E94830FA1960FB6F894DEBF0FBEE2
:10201000CDBFDF91CF911F910F91FF90EF90DF9097
:10202000BF90AF909F908F900895CF92DF92EF92E4
:10203000FF920F931F93CF93DF93EC016A017B0113
:102040002115310579F4E881F9810190F081E02DC5
:10205000642FDF91CF911F910F91FF90EF90DF9050
:10206000CF9009942A303105E9F477FF1AC06DE268
:102070000E94A90F8C0144275527BA014C195D090C
:102080006E097F092AE0CE010E94C60F800F911FC2
:10209000DF91CF911F910F91FF90EF90DF90CF9044
:1020A00008952AE0B701A601CE01DF91CF911F91DB
:1020B0000F91FF90EF90DF90CF900C94C60F0F938D
:1020C0001F93CF93DF93EC019A01AB01662757FD75
:1020D0006095762F0E9415108C01CE010E94B00FE2
:1020E000800F911FDF91CF911F910F9108950F9352
:1020F0001F93CF93DF93EC010E9415108C01CE014A
:102100000E94B00F800F911FDF91CF911F910F910F
:1021100008952115310541F4DC01ED91FC91019008
:10212000F081E02D642F09940C94C60F9A01462F7C
:1021300050E060E070E00C948910FC018081918196
:102140000C94BC15CF93DF93EC01888199810097A3
:1021500011F00E94BC15198218821D821C821B82FC
:102160001A82DF91CF9108950F931F93CF93DF933E
:10217000EC018B016F5F7F4F888199810E944B1624
:10218000009731F0998388831B830A8381E001C023
:1021900080E0DF91CF911F910F910895CF93DF934E
:1021A000EC0188819981892B29F08A819B8186178E
:1021B000970760F4CE010E94B410882341F08C810F
:1021C0009D81892B19F4E881F981108281E0DF91EA
:1021D000CF910895EF92FF920F931F93CF93DF93C8
:1021E000EC017B018A01BA010E94CE10811104C06A
:1021F000CE010E94A21007C01D830C83B701888105
:1022000099810E945A17CE01DF91CF911F910F91B2
:10221000FF90EF900895FC011182108213821282C8
:10222000158214826115710559F0FB01019000209F
:10223000E9F7AF0141505109461B570B0C94EA10C6
:102240000895CF93DF93EC01FB018617970761F0A8
:10225000608171816115710529F0448155810E9469
:10226000EA1002C00E94A210CE01DF91CF91089522
:10227000FC011182108213821282158214820C9446
:102280002111CF93DF93EC016115710561F0FB0122
:1022900001900020E9F7AF0141505109461B570B4F
:1022A0000E94EA1002C00E94A210CE01DF91CF91DD
:1022B0000895CF93DF9300D0CDB7DEB7FC01118234
:1022C0001082138212821582148269831A82BE01DF
:1022D0006F5F7F4F0E9441110F900F90DF91CF9160
:1022E0000895EF92FF920F931F93CF93DF93CDB793
:1022F000DEB7A1970FB6F894DEBF0FBECDBF7C014D
:10230000CB01BA01F7011182108213821282158269
:10231000148242E0420F8E010F5F1F4F0E9403158F
:10232000BC01C7010E944111A1960FB6F894DEBF0F
:102330000FBECDBFDF91CF911F910F91FF90EF9016
:102340000895EF92FF920F931F93CF93DF93EC01C9
:102350007B010C811D816115710511F480E016C0AF
:102360004115510591F0040F151FB8010E94CE10C0
:102370008823A1F3288139818C819D81B701820F47
:10238000931F0E945A171D830C8381E0DF91CF9128
:102390001F910F91FF90EF900895CF93DF93EC0181
:1023A000FB0144815581608171810E94A1118111DD
:1023B00003C0CE010E94A210CE01DF91CF910895FB
:1023C000CF93DF93DC01ED91FC91EB01A881B98102
:1023D000309711F01097C9F4109759F0EB012C8148
:1023E0003D81232B31F08C9190E09195819591095D
:1023F00014C0309781F0DC0114968D919C91159753
:10240000892B49F0808190E008C0BD01CF01DF91A8
:10241000CF910C94511780E090E0DF91CF91089517
:10242000FC0144815581FB0124813581421753070A
:1024300041F40E94E01121E0892B09F020E0822F75
:10244000089580E0089508955058BB27AA270ED01C
:1024500075C166D130F06BD120F031F49F3F11F49B
:102460001EF45BC10EF4E095E7FB51C1E92F77D173
:1024700080F3BA17620773078407950718F071F4A1
:102480009EF58FC10EF4E0950B2EBA2FA02D0B01F7
:10249000B90190010C01CA01A0011124FF27591BA9
:1024A00099F0593F50F4503E68F11A16F040A22FAF
:1024B000232F342F4427585FF3CF46953795279520
:1024C000A795F0405395C9F77EF41F16BA0B620B1F
:1024D000730B840BBAF09150A1F0FF0FBB1F661F66
:1024E000771F881FC2F70EC0BA0F621F731F841FA9
:1024F00048F4879577956795B795F7959E3F08F0CF
:10250000B3CF9395880F08F09927EE0F979587958D
:102510000895D9D008F481E008950CD00FC107D1F7
:1025200040F0FED030F021F45F3F19F0F0C05111BF
:1025300039C1F3C014D198F39923C9F35523B1F3EA
:10254000951B550BBB27AA2762177307840738F022
:102550009F5F5F4F220F331F441FAA1FA9F333D081
:102560000E2E3AF0E0E830D091505040E695001C35
:10257000CAF729D0FE2F27D0660F771F881FBB1FF1
:10258000261737074807AB07B0E809F0BB0B802DCB
:10259000BF01FF2793585F4F2AF09E3F510568F017
:1025A000B6C000C15F3FECF3983EDCF386957795AB
:1025B0006795B795F7959F5FC9F7880F911D969519
:1025C000879597F90895E1E0660F771F881FBB1F75
:1025D000621773078407BA0720F0621B730B840B22
:1025E000BA0BEE1F88F7E095089504D06894B111F6
:1025F000D9C00895BCD088F09F5790F0B92F992783
:10260000B751A0F0D1F0660F771F881F991F1AF0FD
:10261000BA95C9F712C0B13081F0C3D0B1E00895C6
:10262000C0C0672F782F8827B85F39F0B93FCCF347
:10263000869577956795B395D9F73EF490958095F3
:10264000709561957F4F8F4F9F4F0895E89409C013
:1026500097FB3EF490958095709561957F4F8F4FD5
:102660009F4F9923A9F0F92F96E9BB279395F695EB
:10267000879577956795B795F111F8CFFAF4BB0F69
:1026800011F460FF1BC06F5F7F4F8F4F9F4F16C0CD
:10269000882311F096E911C0772321F09EE8872F57
:1026A000762F05C0662371F096E8862F70E060E013
:1026B0002AF09A95660F771F881FDAF7880F96958C
:1026C000879597F90895990F0008550FAA0BE0E830
:1026D000FEEF16161706E807F907C0F012161306E4
:1026E000E407F50798F0621B730B840B950B39F424
:1026F0000A2661F0232B242B252B21F408950A268A
:1027000009F4A140A6958FEF811D811D089597F9C9
:102710009F6780E870E060E008959FEF80EC089587
:1027200000240A94161617061806090608950024B0
:102730000A9412161306140605060895092E03942A
:10274000000C11F4882352F0BB0F40F4BF2B11F49E
:1027500060FF04C06F5F7F4F8F4F9F4F089557FDFD
:102760009058440F551F59F05F3F71F04795880FFF
:1027700097FB991F61F09F3F79F087950895121696
:1027800013061406551FF2CF4695F1DF08C0161642
:1027900017061806991FF1CF8695710561050894F3
:1027A0000895E894BB2766277727CB0197F908950A
:1027B0000BD0C4CFB5DF28F0BADF18F0952309F0AD
:1027C000A6CFABCF1124EECFCADFA0F3959FD1F3F4
:1027D000950F50E0551F629FF001729FBB27F00DCF
:1027E000B11D639FAA27F00DB11DAA1F649F662724
:1027F000B00DA11D661F829F2227B00DA11D621F73
:10280000739FB00DA11D621F839FA00D611D221F2C
:10281000749F3327A00D611D231F849F600D211D10
:10282000822F762F6A2F11249F5750408AF0E1F0B3
:1028300088234AF0EE0FFF1FBB1F661F771F881FFC
:1028400091505040A9F79E3F510570F060CFAACF3C
:102850005F3FECF3983EDCF3869577956795B795E7
:10286000F795E7959F5FC1F7FE2B880F911D969511
:10287000879597F9089511F40EF44FCF3EC077DF96
:10288000D0F39923D9F3CEF39F57550B87FF43D04D
:102890000024A0E640EA900180585695979528F4C8
:1028A000805C660F771F881F20F0261737074807C0
:1028B00030F4621B730B840B202931294A2BA69517
:1028C00017940794202531254A2758F7660F771F5C
:1028D000881F20F026173707480730F4620B730B68
:1028E000840B200D311D411DA09581F7B901842F66
:1028F0009158880F9695879508959F3F31F0915094
:1029000020F4879577956795B795880F911D9695D3
:10291000879597F9089591505040660F771F881F4B
:10292000D2F70895DB018F939F930E94E314BF9128
:10293000AF91A29F800D911DA39F900DB29F900D0E
:1029400011240895A1E21A2EAA1BBB1BFD010DC084
:10295000AA1FBB1FEE1FFF1FA217B307E407F5074F
:1029600020F0A21BB30BE40BF50B661F771F881F2B
:10297000991F1A9469F760957095809590959B01C1
:10298000AC01BD01CF010895052E97FB1EF4009404
:102990000E94DB1457FD07D00E94A21407FC03D04D
:1029A0004EF40C94DB1450954095309521953F4F93
:1029B0004F4F5F4F089590958095709561957F4F2B
:1029C0008F4F9F4F08950E94F414A59F900DB49FC0
:1029D000900DA49F800D911D11240895EE0FFF1FEF
:1029E0000590F491E02D0994A29FB001B39FC0011E
:1029F000A39F700D811D1124911DB29F700D811D2B
:102A00001124911D0895EF920F931F93CF93DF939D
:102A1000E80147FF02C034E101C034E0E42FFF27A2
:102A2000E7FDF095F7FF03C0F195E195F109E32E7D
:102A3000022F2E2FAE010E946917CE01DF91CF9198
:102A40001F910F91EF900895CF93DF9382309105FE
:102A500010F482E090E0E0919B03F0919C0320E071
:102A600030E0A0E0B0E0309739F140815181481763
:102A70005907B8F04817590771F48281938110976C
:102A800029F013969C938E9312972CC090939C03DD
:102A900080939B0327C02115310531F0421753075E
:102AA00018F0A901DB0101C0EF019A01BD01DF01AE
:102AB0000280F381E02DD7CF21153105F9F0281BD5
:102AC000390B2430310580F48A819B8161157105B1
:102AD00021F0FB019383828304C090939C03809335
:102AE0009B03FE01329644C0FE01E20FF31F819367
:102AF000919322503109398328833AC02091990358
:102B000030919A03232B41F420910201309103016B
:102B100030939A0320939903209100013091010191
:102B20002115310541F42DB73EB740910401509174
:102B30000501241B350BE0919903F0919A03E217EC
:102B4000F307A0F42E1B3F0B2817390778F0AC01D0
:102B50004E5F5F4F2417350748F04E0F5F1F5093AD
:102B60009A03409399038193919302C0E0E0F0E0CF
:102B7000CF01DF91CF910895CF93DF93009709F4B0
:102B800087C0FC01329713821282C0919B03D091BF
:102B90009C03209781F420813181280F391F809177
:102BA000990390919A038217930779F5F0939A030A
:102BB000E09399036DC0DE0120E030E0AE17BF075F
:102BC00050F412964D915C9113979D01411551055A
:102BD00009F1DA01F3CFB383A28340815181840FDD
:102BE000951F8A179B0771F48D919C911197840F03
:102BF000951F02969183808312968D919C911397D5
:102C0000938382832115310529F4F0939C03E0938B
:102C10009B033EC0D9011396FC93EE9312974D91FE
:102C20005D91A40FB51FEA17FB0779F480819181AC
:102C3000840F951F0296D90111969C938E938281E1
:102C4000938113969C938E931297E0E0F0E08A8133
:102C50009B81009719F0FE01EC01F9CFCE0102969D
:102C600028813981820F931F2091990330919A0313
:102C70002817390769F4309729F410929C031092B1
:102C80009B0302C013821282D0939A03C0939903CC
:102C9000DF91CF910895A0E0B0E0E1E5F6E10C947A
:102CA000411BEC01CB01209719F40E942415B8C0F8
:102CB000FE01E60FF71F9E0122503109E217F307CC
:102CC00008F4ACC0D9010D911C9111970617170794
:102CD000B8F00530110508F49FC0A801445051090F
:102CE0004617570708F498C002501109061B170B26
:102CF000019311936D937C93CF010E94BC158CC0FE
:102D00005B01A01AB10A4E01800E911EA0919B0397
:102D1000B0919C03612C712C60E070E0109709F475
:102D200049C0A815B905C9F5ED90FC901197670148
:102D300042E0C40ED11CCA14DB0478F147018A18A2
:102D40009B08640142E0C40ED11C1296BC901297FD
:102D50001396AC91B5E0CB16D10440F0B282A383B8
:102D600091828082D9018D939C9309C00E5F1F4F81
:102D70000E0D1F1DF90111830083EB2DFA2F611534
:102D8000710531F0DB011396FC93EE93129744C06A
:102D9000F0939C03E0939B033FC06D917C9111974E
:102DA0006616770608F43B01BD0112960D90BC91A2
:102DB000A02DB4CF6091990370919A03681579059D
:102DC000E9F468167906D0F44091000150910101B0
:102DD0004115510541F44DB75EB760910401709102
:102DE0000501461B570BE417F507C0F4F0939A034F
:102DF000E0939903F901918380830EC00E9424150A
:102E00007C01009759F0A801BE010E944817CE012D
:102E10000E94BC15C70104C0CE0102C080E090E052
:102E2000CDB7DEB7EEE00C945D1B662777270C94D8
:102E3000E718FC0188279927E89421912032E9F3CB
:102E4000293010F02E30C8F32B3241F02D3239F4F6
:102E5000689404C00E946117820F911D2191205334
:102E60002A30C0F31EF4909581959F4F089585FDFB
:102E7000E9C380629111E6C381568A51E0F7089553
:102E80009111E0C3803219F089508550D0F7089530
:102E9000FB01DC0102C001900D9241505040D8F777
:102EA0000895FB01DC018D91019080190110D9F387
:102EB000990B0895FB01DC0101900D920020E1F7D0
:102EC00008957AE0979F902D879F802D910D112472
:102ED00008956F927F929F92AF92BF92CF92DF92AE
:102EE000EF92FF920F931F93CF93DF93CDB7DEB78F
:102EF00029970FB6F894DEBF0FBECDBF6A01B22E80
:102F0000102F0C3320F4FF24F394F00E02C04CE396
:102F1000F42E0F2D27E0AE014F5F5F4F0E944A1A3B
:102F20007981272F2970213031F0E1FC06C0E0FCC7
:102F300006C060E005C06DE203C06BE201C060E264
:102F4000AE2DA07173FF36C0662311F084E001C07E
:102F500083E08B1510F4B81A01C0B12CA1110BC07D
:102F6000F6018B2D90E2882319F091938150FBCFCD
:102F7000CB0CD11CB12C662331F0F6016083960195
:102F80002F5F3F4F6901C6010396E2FE05C02EE4A4
:102F9000F601208331E404C02EE6F601208331E6F9
:102FA00031832283FC012B2D30E22223F1F1319376
:102FB0002150FBCF72FF40C0662311F084E001C0B6
:102FC00083E08B1510F4B81A01C0B12CA1110BC00D
:102FD000F6018B2D90E2882319F091938150FBCF5D
:102FE000CB0CD11CB12C662331F0F6016083960125
:102FF0002F5F3F4F6901C6010396E2FE07C029E437
:10300000F60120832EE4218326E406C029E6F6019A
:1030100020832EE6218326E62283FC012B2D30E23D
:10302000222319F031932150FBCFFC01EB0DF11D50
:1030300010828EEF9FEFB7C0B1E0611101C0B0E028
:103040004B2F50E01816190624F49C012F5F3F4FB8
:1030500002C021E030E0240F351F112329F0412F59
:1030600050E04F5F5F4F02C040E050E0420F531FFF
:103070002B2D30E04217530714F4B41A01C0B12CC1
:103080002E2D287159F4F6012B2D30E2222319F050
:1030900031932150FBCFCB0CD11CB12CBB2331F091
:1030A000F601608396012F5F3F4F6901A1110BC0AC
:1030B000F6012B2D30E3222319F031932150FBCF61
:1030C000CB0CD11CB12CF80E0A81372F3071A32EF6
:1030D00074FF03C0013309F4FA941F142CF42F2D4C
:1030E000293018F028E001C021E0682F392F97FF20
:1030F00002C060E030E0462F532F612C712C3EE27D
:10310000932EBC01621B71099B01DC01A41BB50B52
:10311000E1E0F0E0EC0FFD1FAE0FBF1FE12EF12C40
:10312000F194E194F1084F3FFFEF5F0731F4F601AE
:103130009082B6016F5F7F4F6B01841795074CF04B
:103140002417350734F4BD01660D771DFB0111818D
:1031500001C010E341505109FFEF6F1A7F0AB60119
:103160006F5F7F4F4E155F0524F0F60110836B01F2
:10317000DACF4817590739F4063320F4053319F428
:10318000A11001C011E3F6011083FB018B2D90E229
:10319000882319F091938150FBCFFB01EB0DF11DBA
:1031A000108280E090E029960FB6F894DEBF0FBE43
:1031B000CDBFDF91CF911F910F91FF90EF90DF90E6
:1031C000CF90BF90AF909F907F906F900895A0E0B8
:1031D000B0E0EDEEF8E10C94431B8B016115710535
:1031E00021F0DB018C9311969C93EC015E01BFEF03
:1031F000AB1ABB0A7501C8808C2D90E00E94401765
:10320000892B11F0E501F2CFEDE2CE1208C07E016C
:10321000F2E0EF0EF11CC980DD24D39409C02BE24B
:10322000C21205C07E0142E0E40EF11CC980D12C1F
:10323000E701219743E050E06AEC70E0CE010E9484
:10324000251B892BC1F4239645E050E065EC70E026
:10325000CE010E94251B892B09F425960115110525
:1032600019F0D801CD93DC93D11006C160E070E075
:1032700080E89FE70AC143E050E062EC70E0CE01D5
:103280000E94251B892B59F40115110509F4F9C079
:10329000B2E0EB0EF11CF801F182E082F2C0F7011E
:1032A00060E070E0CB01C0E0D0E07F01A0EDAA2E8D
:1032B000AC0C29E02A1530F14D2D4260B42E2D2D95
:1032C0002870D2FE04C0211125C0219623C02111EF
:1032D0002197A5E0B0E09B01AC010E94E314660FCA
:1032E000771F881F991F6A0D711D811D911D6839F7
:1032F000A9E97A078A07A9E19A0760F0BD2DB660AF
:10330000BB2E08C02EEFA2120AC0D3FC50C04D2D18
:103310004860B42E3196D701CC90DB2CC6CF2C2D33
:103320002F7D253409F043C0A081AD3241F4BD2D7D
:10333000B061DB2E7F0122E0E20EF11C0CC07F01A8
:10334000AB3231F04FEFE41AF40A21E030E006C06E
:10335000A2E0EA0EF11CA18122E030E0A053AA30E5
:1033600018F0E21AF30A23C0F70120E030E0203819
:10337000BCE03B075CF4A901440F551F440F551FE7
:10338000240F351F220F331F2A0F311DAF014F5F4E
:103390005F4F7A01A081A053AA3010F4FA01E7CF61
:1033A000D4FE03C0319521953109C20FD31FD1FE40
:1033B00009C00115110531F0E1E0EE1AF108D8015C
:1033C000ED92FC920E9426132D2D2370233019F0CC
:1033D0004B015C0106C04B015C01B7FAB094B7F831
:1033E000B09420E030E0A901C501B4010E94891227
:1033F000882309F43EC0D7FF06C0D195C195D109F5
:1034000001EE10E002C009EF10E06801B8E1CB1A4C
:10341000D10890E2E92EF12CCE15DF0574F0F80109
:103420002591359145915491C501B4010E94D8135D
:103430004B015C01CE19DF09EFCF04501109F5945F
:10344000E7940C151D0541F78A2D880F8B2D881FD9
:103450008F3F49F020E030E0A901C501B4010E948E
:103460008912811106C082E290E090939E038093BE
:103470009D03C501B40109C060E070E080E89FEFE2
:1034800004C060E070E080EC9FE7CDB7DEB7ECE011
:103490000C945F1B283008F027E03327DA01990FDE
:1034A000311D87FD916000966105710539F4326028
:1034B0002E5F3D9330E32A95E1F708959F3F30F06A
:1034C00080387105610509F03C5F3C5F3D939130A8
:1034D00008F08068911DDF93CF931F930F93FF92A5
:1034E000EF92192F987F9695E92F96959695E90F6B
:1034F000FF27E95AFE4F99273327EE24FF24A7011F
:10350000E70105900894079428F4360FE71EF81E8B
:10351000491F511D660F771F881F991F0694A1F739
:103520000590079428F4E70EF81E491F561FC11D89
:10353000770F881F991F661F0694A1F705900794BF
:1035400028F4F80E491F561FC71FD11D880F991F59
:10355000661F771F0694A1F70590079420F4490F82
:10356000561FC71FD81F990F661F771F881F069405
:10357000A9F784911095177041F0D695C795579586
:103580004795F794E7941A95C1F7EDEFF0E068944A
:103590001590159135916591959105907FE2739500
:1035A000E118F10A430B560BC90BD009C0F7E10C27
:1035B000F11E431F561FC91FD01D7EF4703311F436
:1035C0008A95E6CFE894015030F0080F0AF40027FE
:1035D000021708F4202F2395022F7A3328F079E37D
:1035E0007D932A95E9F710C07D932A9589F6069474
:1035F00097956795379517951794E118F10A430B3E
:10360000560BC90BD00998F023957E9173957A33A8
:1036100008F070E37C932013B8F77E9170617D937E
:1036200030F0839571E37D9370E32A95E1F71124DF
:10363000EF90FF900F911F91CF91DF91992787FD18
:1036400090950895992788270895FB01DC01415042
:10365000504088F08D9181341CF08B350CF4805EE5
:10366000659161341CF06B350CF4605E861B611152
:1036700071F3990B0895881BFCCF2F923F924F92C4
:103680005F926F927F928F929F92AF92BF92CF92F2
:10369000DF92EF92FF920F931F93CF93DF93CDB7FB
:1036A000DEB7CA1BDB0B0FB6F894DEBF0FBECDBF73
:1036B00009942A88398848885F846E847D848C8444
:1036C0009B84AA84B984C884DF80EE80FD800C814D
:1036D0001B81AA81B981CE0FD11D0FB6F894DEBF30
:0C36E0000FBECDBFED010895F894FFCFA0
:1036EC0000009F03800001564D4450565F317C31E1
:1036FC005F564D4450560D0A004E554C004E4543F6
:10370C0000534F4E0052433500524336004C47583D
:10371C00004A5643004149570057485900564D44FA
:10372C0050455F31007C005F564D4450450D0A00FA
:10373C00564D4450435F005F564D4450430D0A00B4
:10374C004572726F723A20417474656D7074207496
:10375C006F20736574206120726561642D6F6E6CCF
:10376C0079207661726961626C65206F7220646188
:10377C0074612074797065206E6F7420737570702D
:10378C006F727465640D0A0000000000DF0D5B0FA2
:10379C00610D7A0D6C0DBD0D6E616E00696E66006B
:0637AC006F7666002E009E
:00000001FF
