:100000000C94FD000C9425010C9425010C94250101
:100010000C9425010C9425010C9425010C942701C6
:100020000C9425010C9425010C9425010C942501B8
:100030000C9425010C9425010C9425010C942501A8
:100040000C949C0A0C9425010C94FA0D0C942C0E23
:100050000C9425010C9425010C9425010C94250188
:100060000C9425010C9425010000000800020100F9
:100070000003040700000000000000000102040863
:100080001020408001020408102001020408102002
:10009000040404040404040402020202020203032E
:1000A00003030303000000002300260029000000D2
:1000B0000000250028002B0000000000240027007D
:1000C0002A004E414E494E495459494E46CDCCCC5A
:1000D0003D0AD7233C17B7D13877CC2B329595E61C
:1000E000241FB14F0A000020410000C84200401CFC
:1000F0004620BCBE4CCA1B0E5AAEC59D7400407A49
:1001000010F35A00A0724E18090010A5D4E80000A0
:10011000E87648170000E40B54020000CA9A3B003E
:100120000000E1F505000080969800000040420FB5
:10013000000000A08601000000102700000000E879
:1001400003000000006400000000000A000000003E
:10015000000100000000002C76D888DC674F0823DF
:10016000DFC1DFAE59E1B1B796E5E3E453C63AE645
:1001700051997696E8E6C28426EB898C9B62ED4025
:100180007C6FFCEFBC9C9F40F2BAA56FA5F4900574
:100190005A2AF75C936B6CF9676DC11BFCE0E40DA8
:1001A00047FEF520E6B500D0ED902E03009435779C
:1001B000050080841E080000204E0A000000C80CC4
:1001C000333333330F986E12831141EF8D2114892D
:1001D0003BE65516CFFEE6DB18D1844B381BF77C87
:1001E0001D901DA4BBE424203284725E228100C9CC
:1001F000F124ECA1E53D27005C0E11241FBECFEFDA
:10020000D8E0DEBFCDBF11E0A0E0B1E0E8EAF5E361
:1002100002C005900D92A43BB107D9F723E0A4EBEF
:10022000B1E001C01D92A538B207E1F711E0CAEFB5
:10023000D1E004C02297FE010E944E14C83FD107AE
:10024000C9F70E94A00E0C94D21A0C9400001F92C1
:100250000F920FB60F9211242F933F934F935F93FA
:100260006F937F938F939F93AF93BF93EF93FF937E
:100270008091B5010E948C0C2091B9013091BA0196
:100280002F5F3F4F3093BA012093B9019091B8018D
:10029000953618F096E09093B4019091B4019430A3
:1002A000C9F128F4923069F09330D1F05EC09530F6
:1002B00009F451C0963009F058C091E0909385023E
:1002C00051C0811152C02091B9013091BA01243638
:1002D000310508F442C0109285021092B8011CC08A
:1002E000813009F042C0E091B80191E09E0F9093F7
:1002F000B801F0E02091B9013091BA01EE0FFF1F73
:10030000EC54FE4F308727831092BA011092B90146
:1003100094E029C0811117C0E091B80191E09E0FCF
:100320009093B801F0E02091B9013091BA01EE0F3D
:10033000FF1FEC54FE4F308727831092BA011092B2
:10034000B90193E010C02091B9013091BA0125366E
:10035000310558F007C0811108C01092BA011092FF
:10036000B90103C095E09093B4019091B70199232E
:10037000B9F081110AC08091B601882321F08091E3
:10038000B60161E009C02D9A0BC08091B6018823A7
:1003900031F08091B60160E00E94560C01C02D98AA
:1003A000FF91EF91BF91AF919F918F917F916F914D
:1003B0005F914F913F912F910F900FBE0F901F9023
:1003C0001895CF93DF93EB011092700061E083E00A
:1003D0000E941D0C60E083E00E94560C9E014427A1
:1003E00037FD4095542F60E47FE180E090E00E946B
:1003F000221481E08093B00089E08093B1002093C3
:10040000B3008BEA289F212D112426952093B40058
:10041000DF91CF9108958F929F92AF92BF92CF922A
:10042000DF92EF92FF926A017B0145305105610531
:10043000710500F10E94F20A4B015C0184E0C81AC8
:10044000D108E108F108C80CD91CEA1CFB1CC8142F
:10045000D904EA04FB0438F40E94F20A86169706CF
:10046000A806B906C8F30E94F20A6C157D058E0530
:100470009F05C8F3FF90EF90DF90CF90BF90AF90B3
:100480009F908F9008952091B00020622093B0003B
:100490006115710529F0AB0160E070E00C940B026E
:1004A00008952091B0002F7D2093B0006115710553
:1004B00029F0AB0160E070E00C940B020895AF925C
:1004C000BF92CF92DF92EF92FF920F931F93CF9341
:1004D000DF93EC015B0166E270E00E94E10160E6FF
:1004E00072E2CE010E94430264E971E1CE010E94F2
:1004F00051020AE110E0C12CD12CE12C32E0F32EA4
:1005000064EF71E0CE010E944302D701C601807CF6
:100510009E7EA772B270892B8A2B8B2B19F068E50F
:1005200072E002C064EA76E0CE010E945102F694C5
:10053000E794D794C7940150110911F7AA0CBB1C7A
:100540000FE010E064EF71E0CE010E944302B7FEBD
:1005500003C068E572E002C064EA76E0CE010E9462
:100560005102AA0CBB1C0150110961F764EF71E044
:10057000CE010E94430264EA76E0CE010E9451025D
:1005800064EF71E0CE010E94430260E070E0CE01B2
:10059000DF91CF911F910F91FF90EF90DF90CF905F
:1005A000BF90AF900C9451028F929F92AF92BF92E6
:1005B000CF92DF92EF92FF920F93CF93DF93EC01F4
:1005C0004A015B01790166E270E00E94E1010111DC
:1005D0000AC060E47FE1CE010E94430260EA7FE04E
:1005E000CE010E945102C7010197C12CD12C760186
:1005F000C39404C0CC0CDD1CEE1CFF1C8A95D2F702
:10060000C114D104E104F104F9F0D701C601882135
:100610009921AA21BB2168E572E0892B8A2B8B2BBB
:1006200031F0CE010E94430260E476E005C0CE01C5
:100630000E94430266E272E0CE010E945102F694EB
:10064000E794D794C794DCCF68E572E0CE010E94AE
:10065000430260E070E0CE01DF91CF910F91FF90F7
:10066000EF90DF90CF90BF90AF909F908F900C94C1
:1006700051028F929F92AF92BF92CF92DF92EF92F0
:10068000FF92CF93DF93EC014A015B01790166E2AF
:1006900070E00E94E10160E47FE1CE010E9443022C
:1006A00060EA7FE0CE010E94510268E572E0CE016F
:1006B0000E944302C7010197C12CD12C7601C3943B
:1006C00004C0CC0CDD1CEE1CFF1C8A95D2F7C114B3
:1006D000D104E104F104E1F0D701C6018821992198
:1006E000AA21BB21892B8A2B8B2B19F060E476E0A1
:1006F00002C066E272E0CE010E94510268E572E03B
:10070000CE010E944302F694E794D794C794DFCFBA
:1007100060E070E0CE01DF91CF91FF90EF90DF902D
:10072000CF90BF90AF909F908F900C9451028F927A
:100730009F92AF92BF92CF92DF92EF92FF92CF93B0
:10074000DF93EC014A015B01790166E270E00E94EF
:10075000E10168E273E2CE010E94430264E971E1C3
:10076000CE010E945102C7010197C12CD12C760104
:10077000C39404C0CC0CDD1CEE1CFF1C8A95D2F780
:10078000C114D104E104F104F9F0D701C6018821B4
:100790009921AA21BB2160E372E0892B8A2B8B2B44
:1007A00031F0CE010E9443026AE976E005C0CE0135
:1007B0000E94430260E372E0CE010E945102F6946F
:1007C000E794D794C794DCCF60E372E0CE010E9437
:1007D000430260E070E0CE01DF91CF91FF90EF9097
:1007E000DF90CF90BF90AF909F908F900C9451026C
:1007F0008F929F92AF92BF92CF92DF92EF92FF9231
:10080000CF93DF93EC014A015B01790164E270E070
:100810000E94E10169E773E0CE010E94430269E7AB
:1008200073E0CE010E94510269E773E0CE010E949D
:100830004302C7010197C12CD12C7601C39404C097
:10084000CC0CDD1CEE1CFF1C8A95D2F7C114D10420
:10085000E104F10411F1D701C60188219921AA21EF
:10086000BB2169E773E0892B8A2B8B2B49F0CE01E2
:100870000E94510269E773E0CE010E94430208C062
:10088000CE010E94430269E773E0CE010E9451024B
:10089000F694E794D794C794D9CF60E070E0CE0186
:1008A000DF91CF91FF90EF90DF90CF90BF90AF900E
:1008B0009F908F900C9451024F925F926F927F9213
:1008C0008F929F92AF92BF92CF92DF92EF92FF9260
:1008D0000F931F93CF93DF93EC012A013B01890112
:1008E00064E270E00E94E1016AE67AE0CE010E94D3
:1008F000430269E773E0CE010E9451026CEB71E0A4
:10090000CE010E9443026CEB71E0CE010E945102C5
:1009100001501109C12CD12C7601C39404C0CC0C18
:10092000DD1CEE1CFF1C0A95D2F7812C912C540182
:100930008394C114D104E104F10479F184E08816B0
:100940009104A104B10419F408E713E002C00CEB10
:1009500011E0D701C60184219521A621B721B80154
:10096000892B8A2B8B2B41F0CE010E944302B801C8
:10097000CE010E94510207C0CE010E945102B8016F
:10098000CE010E9443028FEF881A980AA80AB80A7B
:10099000F694E794D794C794CCCF60E070E0CE0192
:1009A000DF91CF911F910F91FF90EF90DF90CF904B
:1009B000BF90AF909F908F907F906F905F904F907F
:1009C0000C9451028F929F92AF92BF92CF92DF927E
:1009D000EF92FF92CF93DF93EC014A015B01790123
:1009E00068E270E00E94E10160E679E0CE010E94D9
:1009F000430268E572E0CE010E945102C7010197EF
:100A0000C12CD12C7601C39404C0CC0CDD1CEE1C8F
:100A1000FF1C8A95D2F7C114D104E104F104E1F07E
:100A2000D701C60188219921AA21BB21892B8A2BB4
:100A30008B2B19F060EB74E002C068E572E0CE0128
:100A40000E94430268E572E0CE010E945102F694D2
:100A5000E794D794C794DFCFDF91CF91FF90EF90C9
:100A6000DF90CF90BF90AF909F908F9008958F921E
:100A70009F92AF92BF92CF92DF92EF92FF92CF936D
:100A8000DF93EC014A015B01790166E270E00E94AC
:100A9000E1016EEE72E0CE010E9443026EEE72E062
:100AA000CE010E94510262E27BE0CE010E9443022D
:100AB00062E27BE0CE010E945102C7010197C12C86
:100AC000D12C7601C39404C0CC0CDD1CEE1CFF1CA1
:100AD0008A95D2F7C114D104E104F104F9F0D701E9
:100AE000C60188219921AA21BB216EEE72E0892BD3
:100AF0008A2B8B2B31F0CE010E94430266E678E010
:100B000005C0CE010E9443026EEE72E0CE010E944B
:100B10005102F694E794D794C794DCCF6EEE72E05E
:100B2000CE010E9443026EEE72E0CE01DF91CF91C2
:100B3000FF90EF90DF90CF90BF90AF909F908F90FD
:100B40000C9451020F931F93CF93DF93EC01662314
:100B500059F00E94E60A69837A838B839C83DF9134
:100B6000CF911F910F9108950E94E60A09811A8181
:100B70002B813C81601B710B820B930B64367105DA
:100B80008105910530F763E070E080E090E00E941D
:100B9000150BEACF60E00C94A205FC0113AA14AA7D
:100BA00015AA16AA118212821382148241155105C8
:100BB0006105710521F0CB01BA010C94150B089564
:100BC000FB01BA01A901DC01D296FC93EE93D19707
:100BD00026E0CF010C94980D1F93CF93DF93EC0187
:100BE000162F67E071E089A99AA90E94FB0E4AE0DE
:100BF00050E0612F89A99AA90E94F40F6EE071E07C
:100C000089A99AA90E94FB0E62E370E080E090E05F
:100C1000DF91CF911F910C94150B1F93CF93DF930E
:100C2000EC01162F8D81882389F189A99AA9DC010D
:100C3000ED91FC910480F581E02D0995892BA9F3B4
:100C400007C02637310519F12835310509F41D8211
:100C500089A99AA9DC01ED91FC910480F581E02D30
:100C600009951816190694F489A99AA9DC01ED9141
:100C7000FC910680F781E02D09959C0133272336EE
:100C80003105F9F6612FCE010E94EC0583E6DF9174
:100C9000CF911F9108950F931F93CF93DF931F92CE
:100CA000CDB7DEB78C01662349F081E0F80185837A
:100CB00060E0C80149830E940D064981F80145831F
:100CC0000F90DF91CF911F910F9108952F923F9236
:100CD0004F925F926F927F928F929F92AF92BF924C
:100CE000CF92DF92EF92FF920F931F93CF93DF93F8
:100CF000CDB7DEB72F970FB6F894DEBF0FBECDBFCE
:100D0000882E9D831B015F874E87E82EF92E670191
:100D10006FEFC61AD60A8601D7019C90892D90E004
:100D20000E949E16892B11F07601F1CFBDE29B1235
:100D300009C087010E5F1F4FF7019180442443943F
:100D4000512C0BC0FBE29F1206C087010E5F1F4FA4
:100D5000D70111969C90412C512C8E859F858F7EBA
:100D6000892BC9F4B0E39B120EC0F80180818F7DFE
:100D7000883509F0A3C091800E5F1F4F60E170E0DD
:100D80007F876E8708C08E859F85892B21F4AAE016
:100D9000B0E0BF87AE876E857F85882777FD809519
:100DA000982F69837A838B839C836FEF7FEFCB01CE
:100DB00029813A814B815C810E94001469017A018A
:100DC00079876887380100E010E020E030E0A90171
:100DD0007F826E82A92CB12C97FC52C0C501C097AE
:100DE0000A9718F4E0EDE90D1BC0C5012A873B877F
:100DF0004C875D870E9497162A853B854C855D85CB
:100E0000892BF1F1C5010E9495162A853B854C85F9
:100E10005D85892B11F087E301C087E5E92DE81B8B
:100E20008E2F90E0AE85BF858A179B074CF517FD86
:100E30001EC0C216D306E406F506C8F02C153D0503
:100E40004E055F0529F468857985681779077CF078
:100E500069817A818B819C810E94F0139B01AC0196
:100E60002E0F311D411D511D01E010E002C00FEF9A
:100E70001FEF7FEF671A770AAE81BF819C90A8CFE2
:100E800017FD0AC0452859F0509540953095219599
:100E90003F4F4F4F5F4F03C02FEF3FEFA90121148A
:100EA0003104B1F0012B21F083010150110902C07E
:100EB000082D1D81F101118300830AC06E857F8595
:100EC000672B09F068CF88E090E09F878E8763CF1B
:100ED000CA01B9012F960FB6F894DEBF0FBECDBF81
:100EE000DF91CF911F910F91FF90EF90DF90CF9006
:100EF000BF90AF909F908F907F906F905F904F903A
:100F00003F902F90089540ED57E060E070E086E854
:100F100092E00E94CD0520E835E240E050E062EE2C
:100F200072E086E892E00E94E00586E892E00E9486
:100F3000CA056FE571E08091B7029091B8020E94F6
:100F4000FB0E6AE070E080E090E00E94150B41E04B
:100F500060E086E892E00E944B0626E040E855E219
:100F600060E070E082EE92E00C94980DEDEBF2E020
:100F7000119282E0E13DF807D9F7089561E0809190
:100F8000D6020E941D0C8091BD02813311F461E0F4
:100F900003C0803329F460E08091D6020C94560C93
:100FA00008958F929F92AF92BF92CF92DF92EF926D
:100FB000FF920F931F93CF93DF93CDB7DEB7AC971C
:100FC0000FB6F894DEBF0FBECDBF66E171E0CE0173
:100FD00087960E9469106091BF02CE0101960E941F
:100FE000B7106091BE02CE014B960E94B71060917F
:100FF000BD02CE0181960E94B7105E0185E1A80E68
:10100000B11CBE016F5D7F4FC5010E949610BE01ED
:10101000655E7F4FC5010E942B11BE016F5F7F4F40
:101020000E942B11BC01CE0187960E947F10C50142
:101030000E94FB0FCE0181960E94FB0FCE014B96C2
:101040000E94FB0FCE0101960E94FB0F8091C0020F
:10105000883279F48091C302893259F48091C102B7
:1010600089838091C2028A83CE0101960E947716FD
:101070004C01FE0131961192EA15FB05E1F7E4EC13
:10108000F2E0DE01119681918D9382E0E83DF80750
:10109000D1F740E150E060E070E0CE0101960E949F
:1010A00066066B017C01BE01695D7F4FC5010E9430
:1010B0009610B50182EE92E00E94080FC5010E94D1
:1010C000FB0F4AE050E0B40182EE92E00E94BD0FB7
:1010D00020E130E0B701A60182EE92E00E94D50F38
:1010E00061E771E0C5010E946910BE01695D7F4F33
:1010F000C5010E946E11182FC5010E94FB0F11112E
:1011000029C065E771E0C5010E946910BE01695DF3
:101110007F4FC5010E946E11182FC5010E94FB0F61
:10112000112339F09401B701A601C5010E9497036C
:10113000A6C069E771E0C5010E946910BE01695D42
:101140007F4FC5010E946E11182FC5010E94FB0F31
:10115000112339F09401B701A601C5010E94E204F0
:101160008EC06DE771E0C5010E946910BE01695D26
:101170007F4FC5010E946E11182FC5010E94FB0F01
:10118000112339F09401B701A601C5010E94F803AB
:1011900076C061E871E0C5010E946910BE01695D19
:1011A0007F4FC5010E946E11182FC5010E94FB0FD1
:1011B000112339F09401B701A601C5010E945C0416
:1011C0005EC065E871E0C5010E946910BE01695DFD
:1011D0007F4FC5010E946E11182FC5010E94FB0FA1
:1011E000112339F09401B701A601C5010E9439030A
:1011F00046C069E871E0C5010E946910BE01695DE1
:101200007F4FC5010E946E11182FC5010E94FB0F70
:10121000112341F000E09401B701A601C5010E942D
:10122000D4022DC06DE871E0C5010E946910BE01B5
:10123000695D7F4FC5010E946E11182FC5010E9484
:10124000FB0F112329F0B601C5010E945F0217C0F0
:1012500061E971E0C5010E946910BE01695D7F4FBF
:10126000C5010E946E11182FC5010E94FB0F1123AA
:1012700031F09401B701A601C5010E943705CE01E6
:1012800087960E94FB0FAC960FB6F894DEBF0FBE98
:10129000CDBFDF91CF911F910F91FF90EF90DF9025
:1012A000CF90BF90AF909F908F9008957F928F9234
:1012B0009F92AF92BF92CF92DF92EF92FF920F93E5
:1012C0001F93CF93DF9300D000D000D0CDB7DEB70F
:1012D0007090D6028DEB92E00E9473164B015C0178
:1012E00008EE13E0C12CD12C7601872D0E94780BDB
:1012F0008E5F9140BC01882777FD8095982F0E94D2
:1013000086129B01AC010E9436139B01AC01C70100
:10131000B6010E9483116B017C010150110929F76C
:1013200020E030E04AE754E40E94EB110E949D1354
:101330002BE038E240EA5BE30E943613A5019401FA
:101340000E94EB116B017C012CE53FE842EC5DE370
:101350000E94E71118161CF0C12CD12C76016AE00E
:1013600070E080E090E00E94150B22E0B701A6013A
:10137000CE0101960E94CF10BE016F5F7F4F82EEBB
:1013800092E00E94080FCE0101960E94FB0F269664
:101390000FB6F894DEBF0FBECDBFDF91CF911F9186
:1013A0000F91FF90EF90DF90CF90BF90AF909F9004
:1013B0008F907F90089561E085E00E941D0C61E0B0
:1013C00084E00E941D0C61E084E00E94560C8DEBCD
:1013D00092E00E947716BC01882777FD8095982FB0
:1013E0000E94861223E333E343E250E40E94361363
:1013F0000E94531285E00C94950B61E087E00E94F7
:101400001D0C61E086E00E941D0C8091BD028133BD
:1014100039F461E086E00E94560C60E070E008C09C
:10142000823349F461E086E00E94560C6FEF70E071
:1014300087E00E94950B68EB7BE080E090E00E94E3
:10144000150B60E086E00C94560C8091D6029091CA
:10145000D702049711F40E94DB098091D602909183
:10146000D702069711F40C94FD0908950F931F936A
:10147000CF93DF9300D0CDB7DEB70E94B60700E070
:1014800010E082EE92E00E94B50C181619065CF589
:1014900082EE92E00E94CE0C8A30F1F00115110527
:1014A00019F48093D80216C00130110511F4898314
:1014B00011C00230110551F48A83CE0101960E94B9
:1014C00077169093D7028093D60204C0F801E654B1
:1014D000FD4F80830F5F1F4F6AE070E080E090E077
:1014E0000E94150BCECF0F900F90DF91CF911F91DF
:1014F0000F91089582EE92E00E94B50C181619061D
:10150000D4F40E94360A8091D802813311F40E94EB
:10151000BE078091D802833311F40E94D1078091D5
:10152000D802843311F40E94250A8091D8028633B0
:1015300011F40C94560908951F920F920FB60F9252
:1015400011242F933F938F939F93AF93BF938091D9
:10155000DA029091DB02A091DC02B091DD023091C1
:10156000D90223E0230F2D3720F40196A11DB11DD0
:1015700005C026E8230F0296A11DB11D2093D902B4
:101580008093DA029093DB02A093DC02B093DD0239
:101590008091DE029091DF02A091E002B091E10221
:1015A0000196A11DB11D8093DE029093DF02A093EE
:1015B000E002B093E102BF91AF919F918F913F9173
:1015C0002F910F900FBE0F901F9018952FB7F89482
:1015D0006091DA027091DB028091DC029091DD0271
:1015E0002FBF08953FB7F8948091DE029091DF02FB
:1015F000A091E002B091E10226B5A89B05C02F3F63
:1016000019F00196A11DB11D3FBF6627782F892FC4
:101610009A2F620F711D811D911D42E0660F771F89
:10162000881F991F4A95D1F70895CF92DF92EF92C4
:10163000FF92CF93DF936B017C010E94F20AEB01D2
:10164000C114D104E104F10489F00E9481110E94C7
:10165000F20A6C1B7D0B683E734090F381E0C81A60
:10166000D108E108F108C851DC4FEACFDF91CF91F2
:10167000FF90EF90DF90CF900895789484B58260CA
:1016800084BD84B5816084BD85B5826085BD85B526
:10169000816085BDEEE6F0E0808181608083E1E8D5
:1016A000F0E010828081826080838081816080830D
:1016B000E0E8F0E0808181608083E1EBF0E0808110
:1016C00084608083E0EBF0E0808181608083EAE7E2
:1016D000F0E080818460808380818260808380816B
:1016E000816080838081806880831092C10008952A
:1016F0008E3008F08E5087702091060190E4299F6B
:1017000090011124822B80937C0080917A00806468
:1017100080937A0080917A0086FDFCCF80917800DA
:101720002091790090E0922B08951F93CF93DF933F
:10173000182FEB0161E00E941D0C209711F460E06E
:1017400004C0CF3FD10539F461E0812FDF91CF9103
:101750001F910C94560CE12FF0E0E859FF4FE491F3
:10176000E330F9F048F4E130B9F0E230A1F584B5A6
:10177000806284BDC8BD34C0E730E9F0E83019F1BB
:10178000E43049F580918000806280938000D0939E
:101790008B00C0938A0024C084B5806884BDC7BD17
:1017A0001FC080918000806880938000D093890062
:1017B000C093880015C08091B00080688093B0000D
:1017C000C093B3000DC08091B00080628093B000E0
:1017D000C093B40005C0C038D1050CF0B5CFAFCF71
:1017E000DF91CF911F910895833081F028F48130EB
:1017F00099F08230A1F008958730A9F08830B9F0CF
:101800008430D1F4809180008F7D03C0809180006E
:101810008F7780938000089584B58F7702C084B558
:101820008F7D84BD08958091B0008F7703C0809133
:10183000B0008F7D8093B0000895CF93DF9390E048
:10184000FC01E458FF4F2491FC01E057FF4F8491C5
:10185000882349F190E0880F991FFC01E854FF4F5D
:10186000A591B49182559F4FFC01C591D4919FB72A
:10187000611108C0F8948C91209582238C93888103
:1018800082230AC0623051F4F8948C91322F309543
:1018900083238C938881822B888304C0F8948C9155
:1018A000822B8C939FBFDF91CF9108950F931F934D
:1018B000CF93DF931F92CDB7DEB7282F30E0F90129
:1018C000E859FF4F8491F901E458FF4F1491F90151
:1018D000E057FF4F04910023C9F0882321F069836A
:1018E0000E94F40B6981E02FF0E0EE0FFF1FE2553C
:1018F000FF4FA591B4919FB7F8948C91611103C0EB
:101900001095812301C0812B8C939FBF0F90DF9195
:10191000CF911F910F910895CF93DF93282F30E03F
:10192000F901E859FF4F8491F901E458FF4FD49130
:10193000F901E057FF4FC491CC2391F081110E942F
:10194000F40BEC2FF0E0EE0FFF1FEC55FF4FA591CD
:10195000B4912C912D2381E090E021F480E002C02D
:1019600080E090E0DF91CF910895FC01818D228D80
:1019700090E0805C9F4F821B91098F739927089597
:10198000FC01918D828D981731F0828DE80FF11D49
:10199000858D90E008958FEF9FEF0895FC01918D64
:1019A000828D981761F0828DDF01A80FB11D5D96C1
:1019B0008C91928D9F5F9F73928F90E008958FEF2F
:1019C0009FEF089582E59EE0892B49F080E090E04A
:1019D000892B29F00E94520E81110C940000089569
:1019E000FC01848DDF01A80FB11DA35ABF4F2C91BC
:1019F000848D90E001968F739927848FA689B7898B
:101A00002C93A089B1898C9180648C93938D848D63
:101A1000981306C00288F389E02D80818F7D808332
:101A20000895CF93DF93EC01888D8823C9F0EA896C
:101A3000FB89808185FD05C0A889B9898C9186FDC7
:101A40000FC00FB607FCF5CF808185FFF2CFA889C4
:101A5000B9898C9185FFEDCFCE010E94F00CE7CFC4
:101A6000DF91CF910895CF92DF92FF920F931F9352
:101A7000CF93DF931F92CDB7DEB76C0181E0D60123
:101A800058968C9358975B969C915B975C968C913B
:101A90005C97981307C05096ED91FC915197808107
:101AA00085FD2EC0F601038D10E00F5F1F4F0F73F1
:101AB0001127F02EF601848DF81211C00FB607FC25
:101AC000F9CFD6015096ED91FC915197808185FF19
:101AD000F1CFC60169830E94F00C6981EBCF838D41
:101AE000E80FF11DE35AFF4F6083D6015B960C931C
:101AF0005B975296ED91FC915397808180620CC068
:101B0000D6015696ED91FC91579760835096ED91D2
:101B1000FC91519780818064808381E090E00F90F8
:101B2000DF91CF911F910F91FF90DF90CF9008959B
:101B3000BF92CF92DF92EF92FF92CF93DF93EC01AF
:101B40006A017B01B22EE889F98982E08083411520
:101B500081EE580761057105A1F060E079E08DE341
:101B600090E0A70196010E9400142150310941091B
:101B700051095695479537952795211580E13807E6
:101B800098F0E889F989108260E874E88EE190E0C5
:101B9000A70196010E940014215031094109510901
:101BA0005695479537952795EC85FD853083EE85CD
:101BB000FF852083188EEC89FD89B082EA89FB8934
:101BC000808180618083EA89FB898081886080834D
:101BD000EA89FB89808180688083EA89FB8980812A
:101BE0008F7D8083DF91CF91FF90EF90DF90CF903A
:101BF000BF9008951F920F920FB60F9211242F934A
:101C00008F939F93EF93FF93E091F202F091F30291
:101C10008081E091F802F091F90282FD12C090817A
:101C20008091FB028F5F8F732091FC02821751F02D
:101C3000E091FB02F0E0EE51FD4F958F8093FB02A7
:101C400001C08081FF91EF919F918F912F910F9013
:101C50000FBE0F901F9018951F920F920FB60F9204
:101C600011242F933F934F935F936F937F938F93A1
:101C70009F93AF93BF93EF93FF9382EE92E00E9406
:101C8000F00CFF91EF91BF91AF919F918F917F9158
:101C90006F915F914F913F912F910F900FBE0F90D9
:101CA0001F90189582EE92E00E94B50C21E0892BDE
:101CB00009F420E0822F08951092E5021092E402C8
:101CC00088EE93E0A0E0B0E08093E6029093E70214
:101CD000A093E802B093E90289E991E09093E302CE
:101CE0008093E20285EC90E09093EF028093EE0205
:101CF00084EC90E09093F1028093F00280EC90E00D
:101D00009093F3028093F20281EC90E09093F502BD
:101D10008093F40282EC90E09093F7028093F602B5
:101D200086EC90E09093F9028093F8021092FB0207
:101D30001092FC021092FD021092FE020895089586
:101D40000E943D0B0E949F0E0E948307C2EEDCE0C2
:101D50000E947A0A2097E1F30E94E20CF9CFCF9219
:101D6000DF92EF92FF920F931F93CF93DF937C014B
:101D70006A01EB0100E010E00C151D0571F069919E
:101D8000D701ED91FC910190F081E02DC7010995FB
:101D9000892B19F00F5F1F4FEFCFC801DF91CF9153
:101DA0001F910F91FF90EF90DF90CF9008956115F4
:101DB000710581F0DB010D900020E9F7AD01415084
:101DC0005109461B570BDC01ED91FC910280F38118
:101DD000E02D099480E090E00895DC01ED91FC9104
:101DE000DB0114964D915C9115976D917C91028069
:101DF000F381E02D09940C94D70EDC01ED91FC9158
:101E00000190F081E02D099464E171E00C94D70E0B
:101E10000F931F93CF93DF93EC010E94ED0E8C0183
:101E2000CE010E94040F800F911FDF91CF911F916F
:101E30000F9108958F929F92AF92BF92CF92DF92AF
:101E4000EF92FF920F931F93CF93DF93CDB7DEB73F
:101E5000A1970FB6F894DEBF0FBECDBF7C01C42E94
:101E6000E52FCB01D22E19A221E02D1510F02AE08A
:101E7000D22E8E010F5D1F4F8D2C912CA12CB12CD9
:101E80006C2D7E2FA50194010E9400148C2DD29EF2
:101E900080191124015011098A3014F4805D01C0A9
:101EA000895CF8018083211531054105510521F038
:101EB000C22EE32FCA01E4CFB801C7010E94D70E9A
:101EC000A1960FB6F894DEBF0FBECDBFDF91CF91C4
:101ED0001F910F91FF90EF90DF90CF90BF90AF9048
:101EE0009F908F900895CF92DF92EF92FF920F9381
:101EF0001F93CF93DF93EC016A017B01211531051C
:101F000079F4E881F9810190F081E02D642FDF916F
:101F1000CF911F910F91FF90EF90DF90CF90099498
:101F20002A303105E9F477FF1AC06DE20E94FD0EF8
:101F30008C0144275527BA014C195D096E097F09A8
:101F40002AE0CE010E941A0F800F911FDF91CF91DE
:101F50001F910F91FF90EF90DF90CF9008952AE0AE
:101F6000B701A601CE01DF91CF911F910F91FF9094
:101F7000EF90DF90CF900C941A0F0F931F93CF9395
:101F8000DF93EC019A01AB01662757FD6095762F30
:101F90000E94730F8C01CE010E94040F800F911FCD
:101FA000DF91CF911F910F9108950F931F93CF93BE
:101FB000DF93EC010E94730F8C01CE010E94040F8D
:101FC000800F911FDF91CF911F910F9108952115DF
:101FD000310541F4DC01ED91FC910190F081E02D9F
:101FE000642F09940C941A0F9A01462F50E060E078
:101FF00070E00C94E70FFC01808191810C941A151C
:10200000CF93DF93EC0188819981009711F00E94B2
:102010001A15198218821D821C821B821A82DF9176
:10202000CF9108950F931F93CF93DF93EC018B0112
:102030006F5F7F4F888199810E94A915009731F0C9
:10204000998388831B830A8381E001C080E0DF914C
:10205000CF911F910F910895CF93DF93EC01888169
:102060009981892B29F08A819B818617970760F4D3
:10207000CE010E941210882341F08C819D81892B12
:1020800019F4E881F981108281E0DF91CF91089500
:10209000EF92FF920F931F93CF93DF93EC017B019D
:1020A0008A01BA010E942C10811104C0CE010E9445
:1020B000001007C01D830C83B701888199810E949D
:1020C000B816CE01DF91CF911F910F91FF90EF9045
:1020D0000895FC01118210821382128215821482EB
:1020E0006115710559F0FB0101900020E9F7AF017E
:1020F00041505109461B570B0C9448100895CF933B
:10210000DF93EC01FB018617970761F06081718115
:102110006115710529F0448155810E94481002C063
:102120000E940010CE01DF91CF910895FC01118231
:10213000108213821282158214820C947F10CF9326
:10214000DF93EC016115710561F0FB010190002046
:10215000E9F7AF0141505109461B570B0E94481047
:1021600002C00E940010CE01DF91CF910895CF935D
:10217000DF9300D0CDB7DEB7FC011182108213824D
:1021800012821582148269831A82BE016F5F7F4FAB
:102190000E949F100F900F90DF91CF910895EF92C2
:1021A000FF920F931F93CF93DF93CDB7DEB7A19725
:1021B0000FB6F894DEBF0FBECDBF7C01CB01BA01D4
:1021C000F70111821082138212821582148242E07A
:1021D000420F8E010F5F1F4F0E946114BC01C701A7
:1021E0000E949F10A1960FB6F894DEBF0FBECDBF20
:1021F000DF91CF911F910F91FF90EF900895EF9293
:10220000FF920F931F93CF93DF93EC017B010C811F
:102210001D816115710511F480E016C0411551054D
:1022200091F0040F151FB8010E942C108823A1F310
:10223000288139818C819D81B701820F931F0E9473
:10224000B8161D830C8381E0DF91CF911F910F9110
:10225000FF90EF900895CF93DF93EC01FB01448151
:102260005581608171810E94FF10811103C0CE01F0
:102270000E940010CE01DF91CF910895CF93DF939C
:10228000DC01ED91FC91EB01A881B981309711F04F
:102290001097C9F4109759F0EB012C813D81232B45
:1022A00031F08C9190E091958195910914C030970F
:1022B00081F0DC0114968D919C911597892B49F042
:1022C000808190E008C0BD01CF01DF91CF910C94D7
:1022D000AF1680E090E0DF91CF910895FC0144813A
:1022E0005581FB01248135814217530741F40E9437
:1022F0003E1121E0892B09F020E0822F089580E033
:10230000089508955058BB27AA270ED075C166D1ED
:1023100030F06BD120F031F49F3F11F41EF45BC11B
:102320000EF4E095E7FB51C1E92F77D180F3BA179E
:10233000620773078407950718F071F49EF58FC143
:102340000EF4E0950B2EBA2FA02D0B01B9019001D0
:102350000C01CA01A0011124FF27591B99F0593F14
:1023600050F4503E68F11A16F040A22F232F342F5C
:102370004427585FF3CF469537952795A795F040AA
:102380005395C9F77EF41F16BA0B620B730B840BBF
:10239000BAF09150A1F0FF0FBB1F661F771F881F77
:1023A000C2F70EC0BA0F621F731F841F48F48795CF
:1023B00077956795B795F7959E3F08F0B3CF9395BE
:1023C000880F08F09927EE0F979587950895D9D033
:1023D00008F481E008950CD00FC107D140F0FED081
:1023E00030F021F45F3F19F0F0C0511139C1F3C052
:1023F00014D198F39923C9F35523B1F3951B550BC9
:10240000BB27AA2762177307840738F09F5F5F4FC7
:10241000220F331F441FAA1FA9F333D00E2E3AF008
:10242000E0E830D091505040E695001CCAF729D022
:10243000FE2F27D0660F771F881FBB1F2617370771
:102440004807AB07B0E809F0BB0B802DBF01FF27A1
:1024500093585F4F2AF09E3F510568F0B6C000C107
:102460005F3FECF3983EDCF3869577956795B795DB
:10247000F7959F5FC9F7880F911D9695879597F9F6
:102480000895E1E0660F771F881FBB1F621773076F
:102490008407BA0720F0621B730B840BBA0BEE1F84
:1024A00088F7E095089504D06894B111D9C00895D3
:1024B000BCD088F09F5790F0B92F9927B751A0F062
:1024C000D1F0660F771F881F991F1AF0BA95C9F7C8
:1024D00012C0B13081F0C3D0B1E00895C0C0672F01
:1024E000782F8827B85F39F0B93FCCF38695779578
:1024F0006795B395D9F73EF4909580957095619561
:102500007F4F8F4F9F4F0895E89409C097FB3EF48B
:1025100090958095709561957F4F8F4F9F4F992330
:10252000A9F0F92F96E9BB279395F69587957795AE
:102530006795B795F111F8CFFAF4BB0F11F460FF6E
:102540001BC06F5F7F4F8F4F9F4F16C0882311F0C6
:1025500096E911C0772321F09EE8872F762F05C0DA
:10256000662371F096E8862F70E060E02AF09A9575
:10257000660F771F881FDAF7880F9695879597F96A
:102580000895990F0008550FAA0BE0E8FEEF161604
:102590001706E807F907C0F012161306E407F50757
:1025A00098F0621B730B840B950B39F40A2661F0CB
:1025B000232B242B252B21F408950A2609F4A1406E
:1025C000A6958FEF811D811D089597F99F6780E87B
:1025D00070E060E008959FEF80EC089500240A9475
:1025E0001616170618060906089500240A941216EE
:1025F0001306140605060895092E0394000C11F421
:10260000882352F0BB0F40F4BF2B11F460FF04C0CD
:102610006F5F7F4F8F4F9F4F089557FD9058440F26
:10262000551F59F05F3F71F04795880F97FB991F31
:1026300061F09F3F79F087950895121613061406EE
:10264000551FF2CF4695F1DF08C01616170618067B
:10265000991FF1CF86957105610508940895E89456
:10266000BB2766277727CB0197F908950BD0C4CFF6
:10267000B5DF28F0BADF18F0952309F0A6CFABCF6D
:102680001124EECFCADFA0F3959FD1F3950F50E050
:10269000551F629FF001729FBB27F00DB11D639F14
:1026A000AA27F00DB11DAA1F649F6627B00DA11DBA
:1026B000661F829F2227B00DA11D621F739FB00D60
:1026C000A11D621F839FA00D611D221F749F3327D0
:1026D000A00D611D231F849F600D211D822F762F69
:1026E0006A2F11249F5750408AF0E1F088234AF066
:1026F000EE0FFF1FBB1F661F771F881F91505040B2
:10270000A9F79E3F510570F060CFAACF5F3FECF371
:10271000983EDCF3869577956795B795F795E7959D
:102720009F5FC1F7FE2B880F911D9695879597F9AE
:10273000089511F40EF44FCF3EC077DFD0F3992304
:10274000D9F3CEF39F57550B87FF43D00024A0E663
:1027500040EA900180585695979528F4805C660F62
:10276000771F881F20F026173707480730F4621BB1
:10277000730B840B202931294A2BA69517940794B3
:10278000202531254A2758F7660F771F881F20F02C
:1027900026173707480730F4620B730B840B200DA4
:1027A000311D411DA09581F7B901842F9158880FE3
:1027B0009695879508959F3F31F0915020F4879525
:1027C00077956795B795880F911D9695879597F999
:1027D000089591505040660F771F881FD2F70895D3
:1027E000DB018F939F930E944114BF91AF91A29FF1
:1027F000800D911DA39F900DB29F900D11240895FF
:10280000A1E21A2EAA1BBB1BFD010DC0AA1FBB1FF4
:10281000EE1FFF1FA217B307E407F50720F0A21B66
:10282000B30BE40BF50B661F771F881F991F1A94D3
:1028300069F760957095809590959B01AC01BD01FD
:10284000CF010895052E97FB1EF400940E943914C1
:1028500057FD07D00E94001407FC03D04EF40C94DF
:10286000391450954095309521953F4F4F4F5F4F0C
:10287000089590958095709561957F4F8F4F9F4FEC
:1028800008950E945214A59F900DB49F900DA49F8F
:10289000800D911D11240895EE0FFF1F0590F491F6
:1028A000E02D0994A29FB001B39FC001A39F700DBA
:1028B000811D1124911DB29F700D811D1124911D48
:1028C0000895EF920F931F93CF93DF93E80147FF93
:1028D00002C034E101C034E0E42FFF27E7FDF095AA
:1028E000F7FF03C0F195E195F109E32E022F2E2F9A
:1028F000AE010E94C716CE01DF91CF911F910F91BB
:10290000EF900895CF93DF938230910510F482E029
:1029100090E0E0918103F091820320E030E0A0E0BC
:10292000B0E0309739F14081518148175907B8F02C
:102930004817590771F482819381109729F01396F3
:102940009C938E9312972CC0909382038093810363
:1029500027C02115310531F04217530718F0A9019E
:10296000DB0101C0EF019A01BD01DF010280F381AB
:10297000E02DD7CF21153105F9F0281B390B243074
:10298000310580F48A819B816115710521F0FB017D
:102990009383828304C09093820380938103FE011A
:1029A000329644C0FE01E20FF31F819391932250AF
:1029B0003109398328833AC020917F033091800305
:1029C000232B41F4209102013091030130938003C5
:1029D00020937F03209100013091010121153105E1
:1029E00041F42DB73EB74091040150910501241BDD
:1029F000350BE0917F03F0918003E217F307A0F419
:102A00002E1B3F0B2817390778F0AC014E5F5F4F44
:102A10002417350748F04E0F5F1F509380034093F3
:102A20007F038193919302C0E0E0F0E0CF01DF915A
:102A3000CF910895CF93DF93009709F487C0FC01ED
:102A4000329713821282C0918103D0918203209722
:102A500081F420813181280F391F80917F0390916B
:102A600080038217930779F5F0938003E0937F0347
:102A70006DC0DE0120E030E0AE17BF0750F41296C3
:102A80004D915C9113979D014115510509F1DA01B2
:102A9000F3CFB383A28340815181840F951F8A179E
:102AA0009B0771F48D919C911197840F951F02964D
:102AB0009183808312968D919C9113979383828347
:102AC0002115310529F4F0938203E09381033EC080
:102AD000D9011396FC93EE9312974D915D91A40F3B
:102AE000B51FEA17FB0779F480819181840F951F48
:102AF0000296D90111969C938E93828193811396AD
:102B00009C938E931297E0E0F0E08A819B8100977E
:102B100019F0FE01EC01F9CFCE010296288139812E
:102B2000820F931F20917F0330918003281739076C
:102B300069F4309729F4109282031092810302C045
:102B400013821282D0938003C0937F03DF91CF91D1
:102B50000895A0E0B0E0EFEAF5E10C949F1AEC01D3
:102B6000CB01209719F40E948214B8C0FE01E60F31
:102B7000F71F9E0122503109E217F30708F4ACC099
:102B8000D9010D911C91119706171707B8F0053060
:102B9000110508F49FC0A801445051094617570772
:102BA00008F498C002501109061B170B01931193EA
:102BB0006D937C93CF010E941A158CC05B01A01A03
:102BC000B10A4E01800E911EA0918103B091820343
:102BD000612C712C60E070E0109709F449C0A815D1
:102BE000B905C9F5ED90FC901197670142E0C40E5C
:102BF000D11CCA14DB0478F147018A189B086401D0
:102C000042E0C40ED11C1296BC9012971396AC9160
:102C1000B5E0CB16D10440F0B282A38391828082CA
:102C2000D9018D939C9309C00E5F1F4F0E0D1F1D80
:102C3000F90111830083EB2DFA2F6115710531F035
:102C4000DB011396FC93EE93129744C0F09382033A
:102C5000E09381033FC06D917C91119766167706D2
:102C600008F43B01BD0112960D90BC91A02DB4CF8C
:102C700060917F037091800368157905E9F4681607
:102C80007906D0F4409100015091010141155105A0
:102C900041F44DB75EB76091040170910501461B88
:102CA000570BE417F507C0F4F0938003E0937F031C
:102CB000F901918380830EC00E9482147C010097E9
:102CC00059F0A801BE010E94A616CE010E941A1555
:102CD000C70104C0CE0102C080E090E0CDB7DEB7EE
:102CE000EEE00C94BB1A662777270C944518FC017C
:102CF00088279927E89421912032E9F3293010F0B0
:102D00002E30C8F32B3241F02D3239F4689404C0D0
:102D10000E94BF16820F911D219120532A30C0F3CB
:102D20001EF4909581959F4F089585FDE9C38062BB
:102D30009111E6C381568A51E0F708959111E0C3DD
:102D4000803219F089508550D0F70895FB01DC01DD
:102D500002C001900D9241505040D8F70895FB01F8
:102D6000DC018D91019080190110D9F3990B089520
:102D7000FB01DC0101900D920020E1F708957AE05B
:102D8000979F902D879F802D910D112408956F920C
:102D90007F929F92AF92BF92CF92DF92EF92FF927B
:102DA0000F931F93CF93DF93CDB7DEB729970FB65D
:102DB000F894DEBF0FBECDBF6A01B22E102F0C33C8
:102DC00020F4FF24F394F00E02C04CE3F42E0F2DF8
:102DD00027E0AE014F5F5F4F0E94A8197981272F2E
:102DE0002970213031F0E1FC06C0E0FC06C060E053
:102DF00005C06DE203C06BE201C060E2AE2DA071C0
:102E000073FF36C0662311F084E001C083E08B15A8
:102E100010F4B81A01C0B12CA1110BC0F6018B2D12
:102E200090E2882319F091938150FBCFCB0CD11CF9
:102E3000B12C662331F0F601608396012F5F3F4F7E
:102E40006901C6010396E2FE05C02EE4F601208367
:102E500031E404C02EE6F601208331E6318322837B
:102E6000FC012B2D30E22223F1F131932150FBCFD5
:102E700072FF40C0662311F084E001C083E08B152F
:102E800010F4B81A01C0B12CA1110BC0F6018B2DA2
:102E900090E2882319F091938150FBCFCB0CD11C89
:102EA000B12C662331F0F601608396012F5F3F4F0E
:102EB0006901C6010396E2FE07C029E4F6012083FA
:102EC0002EE4218326E406C029E6F60120832EE6BF
:102ED000218326E62283FC012B2D30E2222319F0E8
:102EE00031932150FBCFFC01EB0DF11D10828EEFD1
:102EF0009FEFB7C0B1E0611101C0B0E04B2F50E0CF
:102F00001816190624F49C012F5F3F4F02C021E0E0
:102F100030E0240F351F112329F0412F50E04F5F7F
:102F20005F4F02C040E050E0420F531F2B2D30E0B6
:102F30004217530714F4B41A01C0B12C2E2D287176
:102F400059F4F6012B2D30E2222319F03193215050
:102F5000FBCFCB0CD11CB12CBB2331F0F60160832D
:102F600096012F5F3F4F6901A1110BC0F6012B2D78
:102F700030E3222319F031932150FBCFCB0CD11C2D
:102F8000B12CF80E0A81372F3071A32E74FF03C0C5
:102F9000013309F4FA941F142CF42F2D293018F062
:102FA00028E001C021E0682F392F97FF02C060E0C0
:102FB00030E0462F532F612C712C3EE2932EBC0142
:102FC000621B71099B01DC01A41BB50BE1E0F0E081
:102FD000EC0FFD1FAE0FBF1FE12EF12CF194E19419
:102FE000F1084F3FFFEF5F0731F4F6019082B60121
:102FF0006F5F7F4F6B01841795074CF024173507DF
:1030000034F4BD01660D771DFB01118101C010E391
:1030100041505109FFEF6F1A7F0AB6016F5F7F4F72
:103020004E155F0524F0F60110836B01DACF4817C7
:10303000590739F4063320F4053319F4A11001C0FF
:1030400011E3F6011083FB018B2D90E2882319F028
:1030500091938150FBCFFB01EB0DF11D108280E0BD
:1030600090E029960FB6F894DEBF0FBECDBFDF917A
:10307000CF911F910F91FF90EF90DF90CF90BF9075
:10308000AF909F907F906F900895A0E0B0E0EBE448
:10309000F8E10C94A11A8B016115710521F0DB0197
:1030A0008C9311969C93EC015E01BFEFAB1ABB0AA7
:1030B0007501C8808C2D90E00E949E16892B11F01E
:1030C000E501F2CFEDE2CE1208C07E01F2E0EF0E94
:1030D000F11CC980DD24D39409C02BE2C21205C0C3
:1030E0007E0142E0E40EF11CC980D12CE70121975A
:1030F00043E050E06AEC70E0CE010E94831A892B15
:10310000C1F4239645E050E065EC70E0CE010E94EA
:10311000831A892B09F425960115110519F0D80198
:10312000CD93DC93D11006C160E070E080E89FE7AA
:103130000AC143E050E062EC70E0CE010E94831AC5
:10314000892B59F40115110509F4F9C0B2E0EB0E11
:10315000F11CF801F182E082F2C0F70160E070E05A
:10316000CB01C0E0D0E07F01A0EDAA2EAC0C29E09D
:103170002A1530F14D2D4260B42E2D2D2870D2FE2F
:1031800004C0211125C0219623C021112197A5E05B
:10319000B0E09B01AC010E944114660F771F881FAD
:1031A000991F6A0D711D811D911D6839A9E97A0762
:1031B0008A07A9E19A0760F0BD2DB660BB2E08C052
:1031C0002EEFA2120AC0D3FC50C04D2D4860B42E81
:1031D0003196D701CC90DB2CC6CF2C2D2F7D2534FA
:1031E00009F043C0A081AD3241F4BD2DB061DB2EAA
:1031F0007F0122E0E20EF11C0CC07F01AB3231F006
:103200004FEFE41AF40A21E030E006C0A2E0EA0E33
:10321000F11CA18122E030E0A053AA3018F0E21A9C
:10322000F30A23C0F70120E030E02038BCE03B0780
:103230005CF4A901440F551F440F551F240F351F7F
:10324000220F331F2A0F311DAF014F5F5F4F7A01ED
:10325000A081A053AA3010F4FA01E7CFD4FE03C036
:10326000319521953109C20FD31FD1FE09C0011537
:10327000110531F0E1E0EE1AF108D801ED92FC926F
:103280000E9484122D2D2370233019F04B015C0114
:1032900006C04B015C01B7FAB094B7F8B09420E0D7
:1032A00030E0A901C501B4010E94E711882309F4A7
:1032B0003EC0D7FF06C0D195C195D10901EE10E0FF
:1032C00002C009EF10E06801B8E1CB1AD10890E222
:1032D000E92EF12CCE15DF0574F0F801259135911A
:1032E00045915491C501B4010E9436134B015C0114
:1032F000CE19DF09EFCF04501109F594E7940C15AE
:103300001D0541F78A2D880F8B2D881F8F3F49F0AF
:1033100020E030E0A901C501B4010E94E71181114C
:1033200006C082E290E09093840380938303C501FA
:10333000B40109C060E070E080E89FEF04C060E085
:1033400070E080EC9FE7CDB7DEB7ECE00C94BD1ADF
:10335000283008F027E03327DA01990F311D87FD67
:10336000916000966105710539F432602E5F3D93DE
:1033700030E32A95E1F708959F3F30F080387105DA
:10338000610509F03C5F3C5F3D93913008F0806837
:10339000911DDF93CF931F930F93FF92EF92192FFD
:1033A000987F9695E92F96959695E90FFF27E95A0C
:1033B000FE4F99273327EE24FF24A701E70105904C
:1033C0000894079428F4360FE71EF81E491F511D74
:1033D000660F771F881F991F0694A1F70590079421
:1033E00028F4E70EF81E491F561FC11D770F881FCE
:1033F000991F661F0694A1F70590079428F4F80E0C
:10340000491F561FC71FD11D880F991F661F771FA1
:103410000694A1F70590079420F4490F561FC71F83
:10342000D81F990F661F771F881F0694A9F78491EC
:103430001095177041F0D695C79557954795F79415
:10344000E7941A95C1F7EDEFF0E0689415901591A7
:1034500035916591959105907FE27395E118F10A98
:10346000430B560BC90BD009C0F7E10CF11E431FEB
:10347000561FC91FD01D7EF4703311F48A95E6CF14
:10348000E894015030F0080F0AF40027021708F4FE
:10349000202F2395022F7A3328F079E37D932A9504
:1034A000E9F710C07D932A9589F60694979567955C
:1034B000379517951794E118F10A430B560BC90B72
:1034C000D00998F023957E9173957A3308F070E3D4
:1034D0007C932013B8F77E9170617D9330F08395D3
:1034E00071E37D9370E32A95E1F71124EF90FF904B
:1034F0000F911F91CF91DF91992787FD90950895A6
:10350000992788270895FB01DC014150504088F03D
:103510008D9181341CF08B350CF4805E65916134A3
:103520001CF06B350CF4605E861B611171F3990B16
:103530000895881BFCCF2F923F924F925F926F921B
:103540007F928F929F92AF92BF92CF92DF92EF9233
:10355000FF920F931F93CF93DF93CDB7DEB7CA1BB4
:10356000DB0B0FB6F894DEBF0FBECDBF09942A88DF
:10357000398848885F846E847D848C849B84AA8487
:10358000B984C884DF80EE80FD800C811B81AA8114
:10359000B981CE0FD11D0FB6F894DEBF0FBECDBFDF
:0835A000ED010895F894FFCF3E
:1035A80000008503800001564D4450435F005F567C
:1035B8004D4450430D0A004572726F723A204174AF
:1035C80074656D707420746F207365742061207247
:1035D8006561642D6F6E6C79207661726961626CC9
:1035E80065206F7220646174612074797065206E43
:1035F8006F7420737570706F727465640D0A00566D
:103608004D4450565F317C315F564D4450560D0A3B
:10361800004E554C004E454300534F4E0052433523
:1036280000524336004C4758004A56430041495718
:10363800005748590000000000330DAF0EB50CCEFE
:103648000CC00C110D6E616E00696E66006F7666B7
:04365800002E000040
:00000001FF
